{
  "transactions": [
    {
      "hash": "0xd306e2618bb075b6915d1765dfdfb3ee013bd4462d3507e4c1fba5622f0a1884",
      "transactionType": "CALL",
      "contractName": null,
      "contractAddress": "0x838524ef32eba1c481573cebde9533cb5b8a659a",
      "function": "createMarket(string,uint256,address)",
      "arguments": [
        "Will the Lakers beat the Warriors in their March 1, 2026 NBA matchup?",
        "1774915978",
        "0x5cEf0422163E7bfc7368c5C0CcFd07c7B943572c"
      ],
      "transaction": {
        "from": "0x5cef0422163e7bfc7368c5c0ccfd07c7b943572c",
        "to": "0x838524ef32eba1c481573cebde9533cb5b8a659a",
        "gas": "0x4f242",
        "value": "0x0",
        "input": "0x576cf9d000000000000000000000000000000000000000000000000000000000000000600000000000000000000000000000000000000000000000000000000069cb118a0000000000000000000000005cef0422163e7bfc7368c5c0ccfd07c7b943572c000000000000000000000000000000000000000000000000000000000000004557696c6c20746865204c616b6572732062656174207468652057617272696f727320696e207468656972204d6172636820312c2032303236204e4241206d6174636875703f000000000000000000000000000000000000000000000000000000",
        "nonce": "0x1f",
        "chainId": "0x279f"
      },
      "additionalContracts": [],
      "isFixedGasLimit": false
    },
    {
      "hash": "0x949eb701de37bd8ac0971b10bf8af04582a5463ae61cd3db3bca95c5e9c97646",
      "transactionType": "CALL",
      "contractName": null,
      "contractAddress": "0x838524ef32eba1c481573cebde9533cb5b8a659a",
      "function": "createMarket(string,uint256,address)",
      "arguments": [
        "Will the 76ers cover the spread vs Celtics on March 1, 2026?",
        "1774915978",
        "0x5cEf0422163E7bfc7368c5C0CcFd07c7B943572c"
      ],
      "transaction": {
        "from": "0x5cef0422163e7bfc7368c5c0ccfd07c7b943572c",
        "to": "0x838524ef32eba1c481573cebde9533cb5b8a659a",
        "gas": "0x4596c",
        "value": "0x0",
        "input": "0x576cf9d000000000000000000000000000000000000000000000000000000000000000600000000000000000000000000000000000000000000000000000000069cb118a0000000000000000000000005cef0422163e7bfc7368c5c0ccfd07c7b943572c000000000000000000000000000000000000000000000000000000000000003c57696c6c2074686520373665727320636f76657220746865207370726561642076732043656c74696373206f6e204d6172636820312c20323032363f00000000",
        "nonce": "0x20",
        "chainId": "0x279f"
      },
      "additionalContracts": [],
      "isFixedGasLimit": false
    },
    {
      "hash": "0xb9be413e07b75cc469b09d94440305d7032f82b2e0a1d2d8bd0fbef2f69c8fc4",
      "transactionType": "CALL",
      "contractName": null,
      "contractAddress": "0x838524ef32eba1c481573cebde9533cb5b8a659a",
      "function": "createMarket(string,uint256,address)",
      "arguments": [
        "Will Michigan State beat Indiana in their March 1 Big Ten college basketball game?",
        "1774915978",
        "0x5cEf0422163E7bfc7368c5C0CcFd07c7B943572c"
      ],
      "transaction": {
        "from": "0x5cef0422163e7bfc7368c5c0ccfd07c7b943572c",
        "to": "0x838524ef32eba1c481573cebde9533cb5b8a659a",
        "gas": "0x4dbff",
        "value": "0x0",
        "input": "0x576cf9d000000000000000000000000000000000000000000000000000000000000000600000000000000000000000000000000000000000000000000000000069cb118a0000000000000000000000005cef0422163e7bfc7368c5c0ccfd07c7b943572c000000000000000000000000000000000000000000000000000000000000005257696c6c204d6963686967616e205374617465206265617420496e6469616e6120696e207468656972204d617263682031204269672054656e20636f6c6c656765206261736b657462616c6c2067616d653f0000000000000000000000000000",
        "nonce": "0x21",
        "chainId": "0x279f"
      },
      "additionalContracts": [],
      "isFixedGasLimit": false
    },
    {
      "hash": "0xe72b305f17ff7c229677a67a0ba27810ddbe13ae00fe90f722e9ec2a08bd2ef7",
      "transactionType": "CALL",
      "contractName": null,
      "contractAddress": "0x838524ef32eba1c481573cebde9533cb5b8a659a",
      "function": "createMarket(string,uint256,address)",
      "arguments": [
        "Will Rangers beat Celtic in the Scottish Premiership on March 1, 2026?",
        "1774915978",
        "0x5cEf0422163E7bfc7368c5C0CcFd07c7B943572c"
      ],
      "transaction": {
        "from": "0x5cef0422163e7bfc7368c5c0ccfd07c7b943572c",
        "to": "0x838524ef32eba1c481573cebde9533cb5b8a659a",
        "gas": "0x49610",
        "value": "0x0",
        "input": "0x576cf9d000000000000000000000000000000000000000000000000000000000000000600000000000000000000000000000000000000000000000000000000069cb118a0000000000000000000000005cef0422163e7bfc7368c5c0ccfd07c7b943572c000000000000000000000000000000000000000000000000000000000000004657696c6c2052616e6765727320626561742043656c74696320696e207468652053636f7474697368205072656d69657273686970206f6e204d6172636820312c20323032363f0000000000000000000000000000000000000000000000000000",
        "nonce": "0x22",
        "chainId": "0x279f"
      },
      "additionalContracts": [],
      "isFixedGasLimit": false
    },
    {
      "hash": "0x77445aebcbd4d93eb281582b4704e8301fc4a360acd313effc56d29dcafea59e",
      "transactionType": "CALL",
      "contractName": null,
      "contractAddress": "0x838524ef32eba1c481573cebde9533cb5b8a659a",
      "function": "createMarket(string,uint256,address)",
      "arguments": [
        "At the Cognizant Classic (PGA), will a top-20 world ranked golfer win the event?",
        "1774915978",
        "0x5cEf0422163E7bfc7368c5C0CcFd07c7B943572c"
      ],
      "transaction": {
        "from": "0x5cef0422163e7bfc7368c5c0ccfd07c7b943572c",
        "to": "0x838524ef32eba1c481573cebde9533cb5b8a659a",
        "gas": "0x4dbdc",
        "value": "0x0",
        "input": "0x576cf9d000000000000000000000000000000000000000000000000000000000000000600000000000000000000000000000000000000000000000000000000069cb118a0000000000000000000000005cef0422163e7bfc7368c5c0ccfd07c7b943572c000000000000000000000000000000000000000000000000000000000000005041742074686520436f676e697a616e7420436c61737369632028504741292c2077696c6c206120746f702d323020776f726c642072616e6b656420676f6c6665722077696e20746865206576656e743f00000000000000000000000000000000",
        "nonce": "0x23",
        "chainId": "0x279f"
      },
      "additionalContracts": [],
      "isFixedGasLimit": false
    }
  ],
  "receipts": [
    {
      "status": "0x1",
      "cumulativeGasUsed": "0x4f242",
      "logs": [
        {
          "address": "0x838524ef32eba1c481573cebde9533cb5b8a659a",
          "topics": [
            "0x6f32195b7d0d8b110adfb4d94d26620ec7319053a80302562d6dbbd62805ba9f",
            "0x74ca33646b9a531e996cb49f2900b9c7e1f46dbb58935dc31f010fe24332382f"
          ],
          "data": "0x00000000000000000000000000000000000000000000000000000000000000600000000000000000000000000000000000000000000000000000000069cb118a0000000000000000000000005cef0422163e7bfc7368c5c0ccfd07c7b943572c000000000000000000000000000000000000000000000000000000000000004557696c6c20746865204c616b6572732062656174207468652057617272696f727320696e207468656972204d6172636820312c2032303236204e4241206d6174636875703f000000000000000000000000000000000000000000000000000000",
          "blockHash": "0x2306d63c4a6958bb38268ed6c1375e9b77fcc43aa208cd882607bd10836a0030",
          "blockNumber": "0xf1ec2c",
          "blockTimestamp": "0x69a38491",
          "transactionHash": "0xd306e2618bb075b6915d1765dfdfb3ee013bd4462d3507e4c1fba5622f0a1884",
          "transactionIndex": "0x1",
          "logIndex": "0x1",
          "removed": false
        }
      ],
      "logsBloom": "0x00000000000000000000000000000000000000000000000000000000000000000000000000000000000000000000000008000000000000000000000000000000000000000000000000000400000000000000000000000000000000a00000000000000000000000000000000000000000000000000000000000000000000000000000000000000000000000000000000000000000000000000000000000000000000001000000000000000000000000000000000000000000000000000000000000000000000000000008000000000000000000100400000000040000000000000000000000000000000000000000000000000000000000000000000000000000",
      "type": "0x2",
      "transactionHash": "0xd306e2618bb075b6915d1765dfdfb3ee013bd4462d3507e4c1fba5622f0a1884",
      "transactionIndex": "0x1",
      "blockHash": "0x2306d63c4a6958bb38268ed6c1375e9b77fcc43aa208cd882607bd10836a0030",
      "blockNumber": "0xf1ec2c",
      "gasUsed": "0x4f242",
      "effectiveGasPrice": "0x17fb474601",
      "from": "0x5cef0422163e7bfc7368c5c0ccfd07c7b943572c",
      "to": "0x838524ef32eba1c481573cebde9533cb5b8a659a",
      "contractAddress": null
    },
    {
      "status": "0x1",
      "cumulativeGasUsed": "0x94bae",
      "logs": [
        {
          "address": "0x838524ef32eba1c481573cebde9533cb5b8a659a",
          "topics": [
            "0x6f32195b7d0d8b110adfb4d94d26620ec7319053a80302562d6dbbd62805ba9f",
            "0xb8ba8303d812358245ff7f6fd84f001c3c33641cf3eddf27d73371dfa8bc5318"
          ],
          "data": "0x00000000000000000000000000000000000000000000000000000000000000600000000000000000000000000000000000000000000000000000000069cb118a0000000000000000000000005cef0422163e7bfc7368c5c0ccfd07c7b943572c000000000000000000000000000000000000000000000000000000000000003c57696c6c2074686520373665727320636f76657220746865207370726561642076732043656c74696373206f6e204d6172636820312c20323032363f00000000",
          "blockHash": "0x2306d63c4a6958bb38268ed6c1375e9b77fcc43aa208cd882607bd10836a0030",
          "blockNumber": "0xf1ec2c",
          "blockTimestamp": "0x69a38491",
          "transactionHash": "0x949eb701de37bd8ac0971b10bf8af04582a5463ae61cd3db3bca95c5e9c97646",
          "transactionIndex": "0x2",
          "logIndex": "0x2",
          "removed": false
        }
      ],
      "logsBloom": "0x00000008000000000000000000000000000000001000000000000000000000000000000000000000000000000000000008000000000000000000000000000000000000000000000000000000000000000000000000000000000000200000000000000000000000000000000000200000000000000000000000000000000000000000000000000000000000000000000000000000000000000000000000000000000001000000000000000000000000000000000000000000000000000000000000000000000000000008000000000000000000000400000000040000000000000000000000000000000000000000000000000000000000000000000000000000",
      "type": "0x2",
      "transactionHash": "0x949eb701de37bd8ac0971b10bf8af04582a5463ae61cd3db3bca95c5e9c97646",
      "transactionIndex": "0x2",
      "blockHash": "0x2306d63c4a6958bb38268ed6c1375e9b77fcc43aa208cd882607bd10836a0030",
      "blockNumber": "0xf1ec2c",
      "gasUsed": "0x4596c",
      "effectiveGasPrice": "0x17fb474601",
      "from": "0x5cef0422163e7bfc7368c5c0ccfd07c7b943572c",
      "to": "0x838524ef32eba1c481573cebde9533cb5b8a659a",
      "contractAddress": null
    },
    {
      "status": "0x1",
      "cumulativeGasUsed": "0xe27ad",
      "logs": [
        {
          "address": "0x838524ef32eba1c481573cebde9533cb5b8a659a",
          "topics": [
            "0x6f32195b7d0d8b110adfb4d94d26620ec7319053a80302562d6dbbd62805ba9f",
            "0x2a460257b5a716bf8dbaaa1044e073c4d14ae2f9cef3cbb28e3a14ebec6cbf09"
          ],
          "data": "0x00000000000000000000000000000000000000000000000000000000000000600000000000000000000000000000000000000000000000000000000069cb118a0000000000000000000000005cef0422163e7bfc7368c5c0ccfd07c7b943572c000000000000000000000000000000000000000000000000000000000000005257696c6c204d6963686967616e205374617465206265617420496e6469616e6120696e207468656972204d617263682031204269672054656e20636f6c6c656765206261736b657462616c6c2067616d653f0000000000000000000000000000",
          "blockHash": "0x2306d63c4a6958bb38268ed6c1375e9b77fcc43aa208cd882607bd10836a0030",
          "blockNumber": "0xf1ec2c",
          "blockTimestamp": "0x69a38491",
          "transactionHash": "0xb9be413e07b75cc469b09d94440305d7032f82b2e0a1d2d8bd0fbef2f69c8fc4",
          "transactionIndex": "0x3",
          "logIndex": "0x3",
          "removed": false
        }
      ],
      "logsBloom": "0x00000000000000000000000000000000000000000000000000000000000000000000000000000000000000000000000008000000000000000000000000000000000001000000000000000000000000000000000000000000000000200000000000000000000000000000000000000000004000000000000000000000000000000000000000000000000000000000400000000000000000000000000000000000000001000000000000000000000000000000000000000000000000000000000000000000000000000008000000000000000000000400000000040000000000000000000000000000000000000000000000000000000000000000000000000000",
      "type": "0x2",
      "transactionHash": "0xb9be413e07b75cc469b09d94440305d7032f82b2e0a1d2d8bd0fbef2f69c8fc4",
      "transactionIndex": "0x3",
      "blockHash": "0x2306d63c4a6958bb38268ed6c1375e9b77fcc43aa208cd882607bd10836a0030",
      "blockNumber": "0xf1ec2c",
      "gasUsed": "0x4dbff",
      "effectiveGasPrice": "0x17fb474601",
      "from": "0x5cef0422163e7bfc7368c5c0ccfd07c7b943572c",
      "to": "0x838524ef32eba1c481573cebde9533cb5b8a659a",
      "contractAddress": null
    },
    {
      "status": "0x1",
      "cumulativeGasUsed": "0x12bdbd",
      "logs": [
        {
          "address": "0x838524ef32eba1c481573cebde9533cb5b8a659a",
          "topics": [
            "0x6f32195b7d0d8b110adfb4d94d26620ec7319053a80302562d6dbbd62805ba9f",
            "0x0b2e02ecfe061cd3c915ce536b20d63a493de9dd82c56204168c6b1cbc1de58e"
          ],
          "data": "0x00000000000000000000000000000000000000000000000000000000000000600000000000000000000000000000000000000000000000000000000069cb118a0000000000000000000000005cef0422163e7bfc7368c5c0ccfd07c7b943572c000000000000000000000000000000000000000000000000000000000000004657696c6c2052616e6765727320626561742043656c74696320696e207468652053636f7474697368205072656d69657273686970206f6e204d6172636820312c20323032363f0000000000000000000000000000000000000000000000000000",
          "blockHash": "0x2306d63c4a6958bb38268ed6c1375e9b77fcc43aa208cd882607bd10836a0030",
          "blockNumber": "0xf1ec2c",
          "blockTimestamp": "0x69a38491",
          "transactionHash": "0xe72b305f17ff7c229677a67a0ba27810ddbe13ae00fe90f722e9ec2a08bd2ef7",
          "transactionIndex": "0x4",
          "logIndex": "0x4",
          "removed": false
        }
      ],
      "logsBloom": "0x00000000000000000000000000000000000000000000000000000000000000000000000020000000000000000000000008000000000000000000000000000000000000000000000000000010000000000000000000000000000000200000000000000000000000000000000000000000000000000000000000000000000000000000000000000000000000000000000000000000000000000000000000000000000001000000000000000000000000000000000000000000000000000000000000000000000000000008000000000000000000000401000000040000000000000000000000000000000000000000000000000000000000000000000000000000",
      "type": "0x2",
      "transactionHash": "0xe72b305f17ff7c229677a67a0ba27810ddbe13ae00fe90f722e9ec2a08bd2ef7",
      "transactionIndex": "0x4",
      "blockHash": "0x2306d63c4a6958bb38268ed6c1375e9b77fcc43aa208cd882607bd10836a0030",
      "blockNumber": "0xf1ec2c",
      "gasUsed": "0x49610",
      "effectiveGasPrice": "0x17fb474601",
      "from": "0x5cef0422163e7bfc7368c5c0ccfd07c7b943572c",
      "to": "0x838524ef32eba1c481573cebde9533cb5b8a659a",
      "contractAddress": null
    },
    {
      "status": "0x1",
      "cumulativeGasUsed": "0x179999",
      "logs": [
        {
          "address": "0x838524ef32eba1c481573cebde9533cb5b8a659a",
          "topics": [
            "0x6f32195b7d0d8b110adfb4d94d26620ec7319053a80302562d6dbbd62805ba9f",
            "0xb0c74629aef6183768bad96c46b1d6f9392ae1937c05b0336847a688c38119e1"
          ],
          "data": "0x00000000000000000000000000000000000000000000000000000000000000600000000000000000000000000000000000000000000000000000000069cb118a0000000000000000000000005cef0422163e7bfc7368c5c0ccfd07c7b943572c000000000000000000000000000000000000000000000000000000000000005041742074686520436f676e697a616e7420436c61737369632028504741292c2077696c6c206120746f702d323020776f726c642072616e6b656420676f6c6665722077696e20746865206576656e743f00000000000000000000000000000000",
          "blockHash": "0x2306d63c4a6958bb38268ed6c1375e9b77fcc43aa208cd882607bd10836a0030",
          "blockNumber": "0xf1ec2c",
          "blockTimestamp": "0x69a38491",
          "transactionHash": "0x77445aebcbd4d93eb281582b4704e8301fc4a360acd313effc56d29dcafea59e",
          "transactionIndex": "0x5",
          "logIndex": "0x5",
          "removed": false
        }
      ],
      "logsBloom": "0x80000000000000000000000000000000000000000000000000000000000000000000000000000000000000000000000008000000000000000000000000000000000000000000000000000000000000000000000000000000000000200000000000000000000000000000000000000000000000000000000000000000000000000000000000000000000000000000000000000000000000000000000000000000040001000000000000000000000000000000000000000000000000000000000000000000000000000008000000000000000000000400000000040000000000000000000000000000000000000000000000000000000400000000000000000000",
      "type": "0x2",
      "transactionHash": "0x77445aebcbd4d93eb281582b4704e8301fc4a360acd313effc56d29dcafea59e",
      "transactionIndex": "0x5",
      "blockHash": "0x2306d63c4a6958bb38268ed6c1375e9b77fcc43aa208cd882607bd10836a0030",
      "blockNumber": "0xf1ec2c",
      "gasUsed": "0x4dbdc",
      "effectiveGasPrice": "0x17fb474601",
      "from": "0x5cef0422163e7bfc7368c5c0ccfd07c7b943572c",
      "to": "0x838524ef32eba1c481573cebde9533cb5b8a659a",
      "contractAddress": null
    }
  ],
  "libraries": [],
  "pending": [],
  "returns": {},
  "timestamp": 1772323987210,
  "chain": 10143,
  "commit": null
}