{
  "transactions": [
    {
      "hash": "0x811d6b0066820a38e24047b93f50bae984071a921177d3cc530ee492c0ba6c51",
      "transactionType": "CALL",
      "contractName": null,
      "contractAddress": "0x482d224436c9d3794a0f9abf6396c90a681462c2",
      "function": "createMarket(string,uint256,address)",
      "arguments": [
        "Will Bitcoin exceed $150,000 by December 31, 2026?",
        "1798761600",
        "0x5cEf0422163E7bfc7368c5C0CcFd07c7B943572c"
      ],
      "transaction": {
        "from": "0x5cef0422163e7bfc7368c5c0ccfd07c7b943572c",
        "to": "0x482d224436c9d3794a0f9abf6396c90a681462c2",
        "gas": "0x47787",
        "value": "0x0",
        "input": "0x576cf9d00000000000000000000000000000000000000000000000000000000000000060000000000000000000000000000000000000000000000000000000006b36ec800000000000000000000000005cef0422163e7bfc7368c5c0ccfd07c7b943572c000000000000000000000000000000000000000000000000000000000000003257696c6c20426974636f696e2065786365656420243135302c30303020627920446563656d6265722033312c20323032363f0000000000000000000000000000",
        "nonce": "0x3d",
        "chainId": "0x279f"
      },
      "additionalContracts": [],
      "isFixedGasLimit": false
    },
    {
      "hash": "0x63e898e3564c1af0e01d806281bce8cffb3091bf2861be1249e85d277bf53d49",
      "transactionType": "CALL",
      "contractName": null,
      "contractAddress": "0x482d224436c9d3794a0f9abf6396c90a681462c2",
      "function": "createMarket(string,uint256,address)",
      "arguments": [
        "Will Ethereum ETF inflows surpass $50B by end of 2026?",
        "1798761600",
        "0x5cEf0422163E7bfc7368c5C0CcFd07c7B943572c"
      ],
      "transaction": {
        "from": "0x5cef0422163e7bfc7368c5c0ccfd07c7b943572c",
        "to": "0x482d224436c9d3794a0f9abf6396c90a681462c2",
        "gas": "0x45961",
        "value": "0x0",
        "input": "0x576cf9d00000000000000000000000000000000000000000000000000000000000000060000000000000000000000000000000000000000000000000000000006b36ec800000000000000000000000005cef0422163e7bfc7368c5c0ccfd07c7b943572c000000000000000000000000000000000000000000000000000000000000003657696c6c20457468657265756d2045544620696e666c6f77732073757270617373202435304220627920656e64206f6620323032363f00000000000000000000",
        "nonce": "0x3e",
        "chainId": "0x279f"
      },
      "additionalContracts": [],
      "isFixedGasLimit": false
    },
    {
      "hash": "0xd8dde7eb02dd560e546b966ec6e75d8bb94cfc289a770d7c90ef7455801a1533",
      "transactionType": "CALL",
      "contractName": null,
      "contractAddress": "0x482d224436c9d3794a0f9abf6396c90a681462c2",
      "function": "createMarket(string,uint256,address)",
      "arguments": [
        "Will the S&P 500 close above 6000 at any point in 2026?",
        "1798761600",
        "0x5cEf0422163E7bfc7368c5C0CcFd07c7B943572c"
      ],
      "transaction": {
        "from": "0x5cef0422163e7bfc7368c5c0ccfd07c7b943572c",
        "to": "0x482d224436c9d3794a0f9abf6396c90a681462c2",
        "gas": "0x41b96",
        "value": "0x0",
        "input": "0x576cf9d00000000000000000000000000000000000000000000000000000000000000060000000000000000000000000000000000000000000000000000000006b36ec800000000000000000000000005cef0422163e7bfc7368c5c0ccfd07c7b943572c000000000000000000000000000000000000000000000000000000000000003757696c6c20746865205326502035303020636c6f73652061626f7665203630303020617420616e7920706f696e7420696e20323032363f000000000000000000",
        "nonce": "0x3f",
        "chainId": "0x279f"
      },
      "additionalContracts": [],
      "isFixedGasLimit": false
    },
    {
      "hash": "0x0d0988f5d8ca1fd122660e6e1182b3b0e176427c753ffc240a9e168420d0426c",
      "transactionType": "CALL",
      "contractName": null,
      "contractAddress": "0x482d224436c9d3794a0f9abf6396c90a681462c2",
      "function": "createMarket(string,uint256,address)",
      "arguments": [
        "Will SpaceX successfully land humans on Mars before 2030?",
        "1924905600",
        "0x5cEf0422163E7bfc7368c5C0CcFd07c7B943572c"
      ],
      "transaction": {
        "from": "0x5cef0422163e7bfc7368c5c0ccfd07c7b943572c",
        "to": "0x482d224436c9d3794a0f9abf6396c90a681462c2",
        "gas": "0x41bb7",
        "value": "0x0",
        "input": "0x576cf9d000000000000000000000000000000000000000000000000000000000000000600000000000000000000000000000000000000000000000000000000072bbba800000000000000000000000005cef0422163e7bfc7368c5c0ccfd07c7b943572c000000000000000000000000000000000000000000000000000000000000003957696c6c20537061636558207375636365737366756c6c79206c616e642068756d616e73206f6e204d617273206265666f726520323033303f00000000000000",
        "nonce": "0x40",
        "chainId": "0x279f"
      },
      "additionalContracts": [],
      "isFixedGasLimit": false
    },
    {
      "hash": "0xb4ac403ec3121642cb5b79154f44b2bd481b23e7bbeae3aa59ab5b9818fb6ff3",
      "transactionType": "CALL",
      "contractName": null,
      "contractAddress": "0x482d224436c9d3794a0f9abf6396c90a681462c2",
      "function": "createMarket(string,uint256,address)",
      "arguments": [
        "Will an AI system win a Nobel Prize before 2035?",
        "2082758400",
        "0x5cEf0422163E7bfc7368c5C0CcFd07c7B943572c"
      ],
      "transaction": {
        "from": "0x5cef0422163e7bfc7368c5c0ccfd07c7b943572c",
        "to": "0x482d224436c9d3794a0f9abf6396c90a681462c2",
        "gas": "0x41b12",
        "value": "0x0",
        "input": "0x576cf9d00000000000000000000000000000000000000000000000000000000000000060000000000000000000000000000000000000000000000000000000007c245f000000000000000000000000005cef0422163e7bfc7368c5c0ccfd07c7b943572c000000000000000000000000000000000000000000000000000000000000003057696c6c20616e2041492073797374656d2077696e2061204e6f62656c205072697a65206265666f726520323033353f00000000000000000000000000000000",
        "nonce": "0x41",
        "chainId": "0x279f"
      },
      "additionalContracts": [],
      "isFixedGasLimit": false
    },
    {
      "hash": "0x2eb01eb5d6155eb57b4bc84d059fe89468e000365d34c54a90104e8ea5055c49",
      "transactionType": "CALL",
      "contractName": null,
      "contractAddress": "0x482d224436c9d3794a0f9abf6396c90a681462c2",
      "function": "createMarket(string,uint256,address)",
      "arguments": [
        "Will a BRICS nation launch a CBDC used by over 100M people by 2028?",
        "1861920000",
        "0x5cEf0422163E7bfc7368c5C0CcFd07c7B943572c"
      ],
      "transaction": {
        "from": "0x5cef0422163e7bfc7368c5c0ccfd07c7b943572c",
        "to": "0x482d224436c9d3794a0f9abf6396c90a681462c2",
        "gas": "0x49626",
        "value": "0x0",
        "input": "0x576cf9d00000000000000000000000000000000000000000000000000000000000000060000000000000000000000000000000000000000000000000000000006efaa5000000000000000000000000005cef0422163e7bfc7368c5c0ccfd07c7b943572c000000000000000000000000000000000000000000000000000000000000004357696c6c2061204252494353206e6174696f6e206c61756e6368206120434244432075736564206279206f766572203130304d2070656f706c6520627920323032383f0000000000000000000000000000000000000000000000000000000000",
        "nonce": "0x42",
        "chainId": "0x279f"
      },
      "additionalContracts": [],
      "isFixedGasLimit": false
    },
    {
      "hash": "0x6015b45929a55461238417a9b3ea58a57246fdc1d29854312ef08f5f424527a3",
      "transactionType": "CALL",
      "contractName": null,
      "contractAddress": "0x482d224436c9d3794a0f9abf6396c90a681462c2",
      "function": "createMarket(string,uint256,address)",
      "arguments": [
        "Will the Lakers beat the Warriors in their March 1, 2026 NBA matchup?",
        "1774940149",
        "0x5cEf0422163E7bfc7368c5C0CcFd07c7B943572c"
      ],
      "transaction": {
        "from": "0x5cef0422163e7bfc7368c5c0ccfd07c7b943572c",
        "to": "0x482d224436c9d3794a0f9abf6396c90a681462c2",
        "gas": "0x49657",
        "value": "0x0",
        "input": "0x576cf9d000000000000000000000000000000000000000000000000000000000000000600000000000000000000000000000000000000000000000000000000069cb6ff50000000000000000000000005cef0422163e7bfc7368c5c0ccfd07c7b943572c000000000000000000000000000000000000000000000000000000000000004557696c6c20746865204c616b6572732062656174207468652057617272696f727320696e207468656972204d6172636820312c2032303236204e4241206d6174636875703f000000000000000000000000000000000000000000000000000000",
        "nonce": "0x43",
        "chainId": "0x279f"
      },
      "additionalContracts": [],
      "isFixedGasLimit": false
    },
    {
      "hash": "0x201bb22df71f27c5afcd97f1f8b4fe353d768fab2ed00f9eafd554c0755204d0",
      "transactionType": "CALL",
      "contractName": null,
      "contractAddress": "0x482d224436c9d3794a0f9abf6396c90a681462c2",
      "function": "createMarket(string,uint256,address)",
      "arguments": [
        "Will the 76ers cover the spread vs Celtics on March 1, 2026?",
        "1774940149",
        "0x5cEf0422163E7bfc7368c5C0CcFd07c7B943572c"
      ],
      "transaction": {
        "from": "0x5cef0422163e7bfc7368c5c0ccfd07c7b943572c",
        "to": "0x482d224436c9d3794a0f9abf6396c90a681462c2",
        "gas": "0x459ca",
        "value": "0x0",
        "input": "0x576cf9d000000000000000000000000000000000000000000000000000000000000000600000000000000000000000000000000000000000000000000000000069cb6ff50000000000000000000000005cef0422163e7bfc7368c5c0ccfd07c7b943572c000000000000000000000000000000000000000000000000000000000000003c57696c6c2074686520373665727320636f76657220746865207370726561642076732043656c74696373206f6e204d6172636820312c20323032363f00000000",
        "nonce": "0x44",
        "chainId": "0x279f"
      },
      "additionalContracts": [],
      "isFixedGasLimit": false
    },
    {
      "hash": "0x50c812703914532a9091c7565c3669c1c31da5d4d1df3f19fdbb76f9e25845b1",
      "transactionType": "CALL",
      "contractName": null,
      "contractAddress": "0x482d224436c9d3794a0f9abf6396c90a681462c2",
      "function": "createMarket(string,uint256,address)",
      "arguments": [
        "Will Michigan State beat Indiana in their March 1 Big Ten college basketball game?",
        "1774940149",
        "0x5cEf0422163E7bfc7368c5C0CcFd07c7B943572c"
      ],
      "transaction": {
        "from": "0x5cef0422163e7bfc7368c5c0ccfd07c7b943572c",
        "to": "0x482d224436c9d3794a0f9abf6396c90a681462c2",
        "gas": "0x4dc5d",
        "value": "0x0",
        "input": "0x576cf9d000000000000000000000000000000000000000000000000000000000000000600000000000000000000000000000000000000000000000000000000069cb6ff50000000000000000000000005cef0422163e7bfc7368c5c0ccfd07c7b943572c000000000000000000000000000000000000000000000000000000000000005257696c6c204d6963686967616e205374617465206265617420496e6469616e6120696e207468656972204d617263682031204269672054656e20636f6c6c656765206261736b657462616c6c2067616d653f0000000000000000000000000000",
        "nonce": "0x45",
        "chainId": "0x279f"
      },
      "additionalContracts": [],
      "isFixedGasLimit": false
    },
    {
      "hash": "0x205fe1c751417ff92c67d3f44f1035c7b529477a9243e9b34ce4c961c0d0d4fe",
      "transactionType": "CALL",
      "contractName": null,
      "contractAddress": "0x482d224436c9d3794a0f9abf6396c90a681462c2",
      "function": "createMarket(string,uint256,address)",
      "arguments": [
        "Will Rangers beat Celtic in the Scottish Premiership on March 1, 2026?",
        "1774940149",
        "0x5cEf0422163E7bfc7368c5C0CcFd07c7B943572c"
      ],
      "transaction": {
        "from": "0x5cef0422163e7bfc7368c5c0ccfd07c7b943572c",
        "to": "0x482d224436c9d3794a0f9abf6396c90a681462c2",
        "gas": "0x49668",
        "value": "0x0",
        "input": "0x576cf9d000000000000000000000000000000000000000000000000000000000000000600000000000000000000000000000000000000000000000000000000069cb6ff50000000000000000000000005cef0422163e7bfc7368c5c0ccfd07c7b943572c000000000000000000000000000000000000000000000000000000000000004657696c6c2052616e6765727320626561742043656c74696320696e207468652053636f7474697368205072656d69657273686970206f6e204d6172636820312c20323032363f0000000000000000000000000000000000000000000000000000",
        "nonce": "0x46",
        "chainId": "0x279f"
      },
      "additionalContracts": [],
      "isFixedGasLimit": false
    },
    {
      "hash": "0x741f2ac9665322b68e8323edc5165b1c2cdafbd920a8892db194051fd8b16407",
      "transactionType": "CALL",
      "contractName": null,
      "contractAddress": "0x482d224436c9d3794a0f9abf6396c90a681462c2",
      "function": "createMarket(string,uint256,address)",
      "arguments": [
        "At the Cognizant Classic (PGA), will a top-20 world ranked golfer win the event?",
        "1774940149",
        "0x5cEf0422163E7bfc7368c5C0CcFd07c7B943572c"
      ],
      "transaction": {
        "from": "0x5cef0422163e7bfc7368c5c0ccfd07c7b943572c",
        "to": "0x482d224436c9d3794a0f9abf6396c90a681462c2",
        "gas": "0x4dc3a",
        "value": "0x0",
        "input": "0x576cf9d000000000000000000000000000000000000000000000000000000000000000600000000000000000000000000000000000000000000000000000000069cb6ff50000000000000000000000005cef0422163e7bfc7368c5c0ccfd07c7b943572c000000000000000000000000000000000000000000000000000000000000005041742074686520436f676e697a616e7420436c61737369632028504741292c2077696c6c206120746f702d323020776f726c642072616e6b656420676f6c6665722077696e20746865206576656e743f00000000000000000000000000000000",
        "nonce": "0x47",
        "chainId": "0x279f"
      },
      "additionalContracts": [],
      "isFixedGasLimit": false
    }
  ],
  "receipts": [
    {
      "status": "0x1",
      "cumulativeGasUsed": "0x47787",
      "logs": [
        {
          "address": "0x482d224436c9d3794a0f9abf6396c90a681462c2",
          "topics": [
            "0x6f32195b7d0d8b110adfb4d94d26620ec7319053a80302562d6dbbd62805ba9f",
            "0xd8667e22fe83a9a7f41945ebb96fcc13d8ab4663cbd26b8a6bd6315d808bbfe5"
          ],
          "data": "0x0000000000000000000000000000000000000000000000000000000000000060000000000000000000000000000000000000000000000000000000006b36ec800000000000000000000000005cef0422163e7bfc7368c5c0ccfd07c7b943572c000000000000000000000000000000000000000000000000000000000000003257696c6c20426974636f696e2065786365656420243135302c30303020627920446563656d6265722033312c20323032363f0000000000000000000000000000",
          "blockHash": "0x403ab1aba2c89099845276dd213e61edc30e3b7860f1ac4a473d516e53e76926",
          "blockNumber": "0xf2d7bb",
          "blockTimestamp": "0x69a3e301",
          "transactionHash": "0x811d6b0066820a38e24047b93f50bae984071a921177d3cc530ee492c0ba6c51",
          "transactionIndex": "0x1",
          "logIndex": "0x1",
          "removed": false
        }
      ],
      "logsBloom": "0x00000000000000000000000000000000000000000000000000000000000004000000000000000000000100000000000008000000000000000000000000000000000000000000000000000000002000000000000000000000000000000000000000020000000000000000000000000040000000000000000000000000000000000000000000000000000000000000000000000000000000000000000000000000000001000000000000000000000020000000000000000000000000000000000000000000000000000008000000000000000000000000000000000000000000000000000000000000000000000000000000000000000000000000000000000000",
      "type": "0x2",
      "transactionHash": "0x811d6b0066820a38e24047b93f50bae984071a921177d3cc530ee492c0ba6c51",
      "transactionIndex": "0x1",
      "blockHash": "0x403ab1aba2c89099845276dd213e61edc30e3b7860f1ac4a473d516e53e76926",
      "blockNumber": "0xf2d7bb",
      "gasUsed": "0x47787",
      "effectiveGasPrice": "0x17fb474601",
      "from": "0x5cef0422163e7bfc7368c5c0ccfd07c7b943572c",
      "to": "0x482d224436c9d3794a0f9abf6396c90a681462c2",
      "contractAddress": null
    },
    {
      "status": "0x1",
      "cumulativeGasUsed": "0x8d0e8",
      "logs": [
        {
          "address": "0x482d224436c9d3794a0f9abf6396c90a681462c2",
          "topics": [
            "0x6f32195b7d0d8b110adfb4d94d26620ec7319053a80302562d6dbbd62805ba9f",
            "0x1c8124457223ece8681e7be5bc9ad713a92a719481de3592c6e0e17a1a43593c"
          ],
          "data": "0x0000000000000000000000000000000000000000000000000000000000000060000000000000000000000000000000000000000000000000000000006b36ec800000000000000000000000005cef0422163e7bfc7368c5c0ccfd07c7b943572c000000000000000000000000000000000000000000000000000000000000003657696c6c20457468657265756d2045544620696e666c6f77732073757270617373202435304220627920656e64206f6620323032363f00000000000000000000",
          "blockHash": "0x403ab1aba2c89099845276dd213e61edc30e3b7860f1ac4a473d516e53e76926",
          "blockNumber": "0xf2d7bb",
          "blockTimestamp": "0x69a3e301",
          "transactionHash": "0x63e898e3564c1af0e01d806281bce8cffb3091bf2861be1249e85d277bf53d49",
          "transactionIndex": "0x2",
          "logIndex": "0x2",
          "removed": false
        }
      ],
      "logsBloom": "0x00000000000000000000000004000000000000000000000000000000000000000000000000000000000000000000000008000000000000000000000000000000000000000040000000000000002000000000000000000000000000000000000000000000000000000000000000000040000000000000000000000000000000000000000000000000000000000000000000000000000000000000000000000000000001000000000000002000000020000000000000000000000000000000000000000000000000000008000000000000000000000000000000000000000000000000000000000000000000000000000000000000000000000000000000000000",
      "type": "0x2",
      "transactionHash": "0x63e898e3564c1af0e01d806281bce8cffb3091bf2861be1249e85d277bf53d49",
      "transactionIndex": "0x2",
      "blockHash": "0x403ab1aba2c89099845276dd213e61edc30e3b7860f1ac4a473d516e53e76926",
      "blockNumber": "0xf2d7bb",
      "gasUsed": "0x45961",
      "effectiveGasPrice": "0x17fb474601",
      "from": "0x5cef0422163e7bfc7368c5c0ccfd07c7b943572c",
      "to": "0x482d224436c9d3794a0f9abf6396c90a681462c2",
      "contractAddress": null
    },
    {
      "status": "0x1",
      "cumulativeGasUsed": "0x155a78",
      "logs": [
        {
          "address": "0x482d224436c9d3794a0f9abf6396c90a681462c2",
          "topics": [
            "0x6f32195b7d0d8b110adfb4d94d26620ec7319053a80302562d6dbbd62805ba9f",
            "0x566ed6770e7777d925534b63fb87215123979177c6dab681c4343a8509289d53"
          ],
          "data": "0x0000000000000000000000000000000000000000000000000000000000000060000000000000000000000000000000000000000000000000000000006b36ec800000000000000000000000005cef0422163e7bfc7368c5c0ccfd07c7b943572c000000000000000000000000000000000000000000000000000000000000003757696c6c20746865205326502035303020636c6f73652061626f7665203630303020617420616e7920706f696e7420696e20323032363f000000000000000000",
          "blockHash": "0x403ab1aba2c89099845276dd213e61edc30e3b7860f1ac4a473d516e53e76926",
          "blockNumber": "0xf2d7bb",
          "blockTimestamp": "0x69a3e301",
          "transactionHash": "0xd8dde7eb02dd560e546b966ec6e75d8bb94cfc289a770d7c90ef7455801a1533",
          "transactionIndex": "0x5",
          "logIndex": "0xc",
          "removed": false
        }
      ],
      "logsBloom": "0x00000000000000000000000000000000000000000000000000000000000000000000000000000000000000000000000008000000000000000000000000000000000000000000000000000000002000000000000000000000000000000000000000000400000000000000000000000040000000000000000000000000000000000000000000000000000000000000000000000000000000000000000000000000000001000000000000000000000020000000000000000000000000000000000000000000000000000008000000000000000000000000000000000000000000000000000000010000000000000000000000000000000000000000004000000000",
      "type": "0x2",
      "transactionHash": "0xd8dde7eb02dd560e546b966ec6e75d8bb94cfc289a770d7c90ef7455801a1533",
      "transactionIndex": "0x5",
      "blockHash": "0x403ab1aba2c89099845276dd213e61edc30e3b7860f1ac4a473d516e53e76926",
      "blockNumber": "0xf2d7bb",
      "gasUsed": "0x41b96",
      "effectiveGasPrice": "0x17fb474601",
      "from": "0x5cef0422163e7bfc7368c5c0ccfd07c7b943572c",
      "to": "0x482d224436c9d3794a0f9abf6396c90a681462c2",
      "contractAddress": null
    },
    {
      "status": "0x1",
      "cumulativeGasUsed": "0x19762f",
      "logs": [
        {
          "address": "0x482d224436c9d3794a0f9abf6396c90a681462c2",
          "topics": [
            "0x6f32195b7d0d8b110adfb4d94d26620ec7319053a80302562d6dbbd62805ba9f",
            "0xc483bc1c5f26f2bd1e4a111e27fb1427b181a783c837fcb5acb4965d961d0f29"
          ],
          "data": "0x00000000000000000000000000000000000000000000000000000000000000600000000000000000000000000000000000000000000000000000000072bbba800000000000000000000000005cef0422163e7bfc7368c5c0ccfd07c7b943572c000000000000000000000000000000000000000000000000000000000000003957696c6c20537061636558207375636365737366756c6c79206c616e642068756d616e73206f6e204d617273206265666f726520323033303f00000000000000",
          "blockHash": "0x403ab1aba2c89099845276dd213e61edc30e3b7860f1ac4a473d516e53e76926",
          "blockNumber": "0xf2d7bb",
          "blockTimestamp": "0x69a3e301",
          "transactionHash": "0x0d0988f5d8ca1fd122660e6e1182b3b0e176427c753ffc240a9e168420d0426c",
          "transactionIndex": "0x6",
          "logIndex": "0xd",
          "removed": false
        }
      ],
      "logsBloom": "0x00000000000000000800000000000000000000000000000000000000000000000000000002000000000000000000000008000000000000000000000000000000000000000000000000000000002000000000000000000000000000000000000000000000000000000000000000000040000000000000000000000000000000000000000000000000000000000000000000000000000000000000000000000000000001000000000000000000000020000000000000000000000000000000000000000000000000000008000000000000000000000000000000002000000000000000000000000000000000000000000000000000000000000000000000000000",
      "type": "0x2",
      "transactionHash": "0x0d0988f5d8ca1fd122660e6e1182b3b0e176427c753ffc240a9e168420d0426c",
      "transactionIndex": "0x6",
      "blockHash": "0x403ab1aba2c89099845276dd213e61edc30e3b7860f1ac4a473d516e53e76926",
      "blockNumber": "0xf2d7bb",
      "gasUsed": "0x41bb7",
      "effectiveGasPrice": "0x17fb474601",
      "from": "0x5cef0422163e7bfc7368c5c0ccfd07c7b943572c",
      "to": "0x482d224436c9d3794a0f9abf6396c90a681462c2",
      "contractAddress": null
    },
    {
      "status": "0x1",
      "cumulativeGasUsed": "0x1d9141",
      "logs": [
        {
          "address": "0x482d224436c9d3794a0f9abf6396c90a681462c2",
          "topics": [
            "0x6f32195b7d0d8b110adfb4d94d26620ec7319053a80302562d6dbbd62805ba9f",
            "0xb11e8cb1bbb889aa712993a349616cf862331d2e39623391cb39f867cd56338b"
          ],
          "data": "0x0000000000000000000000000000000000000000000000000000000000000060000000000000000000000000000000000000000000000000000000007c245f000000000000000000000000005cef0422163e7bfc7368c5c0ccfd07c7b943572c000000000000000000000000000000000000000000000000000000000000003057696c6c20616e2041492073797374656d2077696e2061204e6f62656c205072697a65206265666f726520323033353f00000000000000000000000000000000",
          "blockHash": "0x403ab1aba2c89099845276dd213e61edc30e3b7860f1ac4a473d516e53e76926",
          "blockNumber": "0xf2d7bb",
          "blockTimestamp": "0x69a3e301",
          "transactionHash": "0xb4ac403ec3121642cb5b79154f44b2bd481b23e7bbeae3aa59ab5b9818fb6ff3",
          "transactionIndex": "0x7",
          "logIndex": "0xe",
          "removed": false
        }
      ],
      "logsBloom": "0x00000000000000000000000000000000000000000000000000000000000000000000000000000000000000000000000008000000000000000000000000000000000000000000000000000000002040040000000000000000000000000000000000000000000000000000000000000040000000000000000000000000000000000000000000000000000000000000000000000000000000000000000000000000000001000000000000000000000020000000000000000000000000000000000020000000000000000008000000000000000000000000000000000000000000000000000000000000000000000000000000000000000000000000000000000000",
      "type": "0x2",
      "transactionHash": "0xb4ac403ec3121642cb5b79154f44b2bd481b23e7bbeae3aa59ab5b9818fb6ff3",
      "transactionIndex": "0x7",
      "blockHash": "0x403ab1aba2c89099845276dd213e61edc30e3b7860f1ac4a473d516e53e76926",
      "blockNumber": "0xf2d7bb",
      "gasUsed": "0x41b12",
      "effectiveGasPrice": "0x17fb474601",
      "from": "0x5cef0422163e7bfc7368c5c0ccfd07c7b943572c",
      "to": "0x482d224436c9d3794a0f9abf6396c90a681462c2",
      "contractAddress": null
    },
    {
      "status": "0x1",
      "cumulativeGasUsed": "0x222767",
      "logs": [
        {
          "address": "0x482d224436c9d3794a0f9abf6396c90a681462c2",
          "topics": [
            "0x6f32195b7d0d8b110adfb4d94d26620ec7319053a80302562d6dbbd62805ba9f",
            "0x72d9cbfc779738f87fc88b724aa296e28b64201b77368f25ec0604c545d7d61b"
          ],
          "data": "0x0000000000000000000000000000000000000000000000000000000000000060000000000000000000000000000000000000000000000000000000006efaa5000000000000000000000000005cef0422163e7bfc7368c5c0ccfd07c7b943572c000000000000000000000000000000000000000000000000000000000000004357696c6c2061204252494353206e6174696f6e206c61756e6368206120434244432075736564206279206f766572203130304d2070656f706c6520627920323032383f0000000000000000000000000000000000000000000000000000000000",
          "blockHash": "0x403ab1aba2c89099845276dd213e61edc30e3b7860f1ac4a473d516e53e76926",
          "blockNumber": "0xf2d7bb",
          "blockTimestamp": "0x69a3e301",
          "transactionHash": "0x2eb01eb5d6155eb57b4bc84d059fe89468e000365d34c54a90104e8ea5055c49",
          "transactionIndex": "0x8",
          "logIndex": "0xf",
          "removed": false
        }
      ],
      "logsBloom": "0x00000000000000000000000000000000000000000000000000000000000000000000000000000000000000000000000008000000000000000000000000000000000000000000000000000000002000000000000000000000000000000000000000000000000000000000000000000040004000400000000000000000000000000000000000000000000000000000100000000000000000000000000000000000000001000000000000000000000020000000000000000000000000000000000000000000000000000008000000000000000000000000000000000000000000000000000000000000000000000000000000000000000000000000000000000000",
      "type": "0x2",
      "transactionHash": "0x2eb01eb5d6155eb57b4bc84d059fe89468e000365d34c54a90104e8ea5055c49",
      "transactionIndex": "0x8",
      "blockHash": "0x403ab1aba2c89099845276dd213e61edc30e3b7860f1ac4a473d516e53e76926",
      "blockNumber": "0xf2d7bb",
      "gasUsed": "0x49626",
      "effectiveGasPrice": "0x17fb474601",
      "from": "0x5cef0422163e7bfc7368c5c0ccfd07c7b943572c",
      "to": "0x482d224436c9d3794a0f9abf6396c90a681462c2",
      "contractAddress": null
    },
    {
      "status": "0x1",
      "cumulativeGasUsed": "0x26bdbe",
      "logs": [
        {
          "address": "0x482d224436c9d3794a0f9abf6396c90a681462c2",
          "topics": [
            "0x6f32195b7d0d8b110adfb4d94d26620ec7319053a80302562d6dbbd62805ba9f",
            "0xdc5c11478d7864f47bb770d8c22aa0139674f340e253af7d2cd351070a5f2f08"
          ],
          "data": "0x00000000000000000000000000000000000000000000000000000000000000600000000000000000000000000000000000000000000000000000000069cb6ff50000000000000000000000005cef0422163e7bfc7368c5c0ccfd07c7b943572c000000000000000000000000000000000000000000000000000000000000004557696c6c20746865204c616b6572732062656174207468652057617272696f727320696e207468656972204d6172636820312c2032303236204e4241206d6174636875703f000000000000000000000000000000000000000000000000000000",
          "blockHash": "0x403ab1aba2c89099845276dd213e61edc30e3b7860f1ac4a473d516e53e76926",
          "blockNumber": "0xf2d7bb",
          "blockTimestamp": "0x69a3e301",
          "transactionHash": "0x6015b45929a55461238417a9b3ea58a57246fdc1d29854312ef08f5f424527a3",
          "transactionIndex": "0x9",
          "logIndex": "0x10",
          "removed": false
        }
      ],
      "logsBloom": "0x00000000000000000000000000000000000000000000000000000000000000000000000000000000000000000000000008000000000000000000000000000000000000000000000000000000002000000000000000000000000000000000000000000000000000000000000000000040000000000000000000000000000000000001000800000000000000000000000000000000000000000000000000000000000001000000000000000000000020000000000000000000000000000000000000000000000000000208000000000000000000000000000000000000000000000000000000000000000000000000000000000000000000000000000000000000",
      "type": "0x2",
      "transactionHash": "0x6015b45929a55461238417a9b3ea58a57246fdc1d29854312ef08f5f424527a3",
      "transactionIndex": "0x9",
      "blockHash": "0x403ab1aba2c89099845276dd213e61edc30e3b7860f1ac4a473d516e53e76926",
      "blockNumber": "0xf2d7bb",
      "gasUsed": "0x49657",
      "effectiveGasPrice": "0x17fb474601",
      "from": "0x5cef0422163e7bfc7368c5c0ccfd07c7b943572c",
      "to": "0x482d224436c9d3794a0f9abf6396c90a681462c2",
      "contractAddress": null
    },
    {
      "status": "0x1",
      "cumulativeGasUsed": "0x2b1788",
      "logs": [
        {
          "address": "0x482d224436c9d3794a0f9abf6396c90a681462c2",
          "topics": [
            "0x6f32195b7d0d8b110adfb4d94d26620ec7319053a80302562d6dbbd62805ba9f",
            "0xf677410201048d7413b6c0e3d082757fd42515fbb5b8e568c7eabee1a6fe592a"
          ],
          "data": "0x00000000000000000000000000000000000000000000000000000000000000600000000000000000000000000000000000000000000000000000000069cb6ff50000000000000000000000005cef0422163e7bfc7368c5c0ccfd07c7b943572c000000000000000000000000000000000000000000000000000000000000003c57696c6c2074686520373665727320636f76657220746865207370726561642076732043656c74696373206f6e204d6172636820312c20323032363f00000000",
          "blockHash": "0x403ab1aba2c89099845276dd213e61edc30e3b7860f1ac4a473d516e53e76926",
          "blockNumber": "0xf2d7bb",
          "blockTimestamp": "0x69a3e301",
          "transactionHash": "0x201bb22df71f27c5afcd97f1f8b4fe353d768fab2ed00f9eafd554c0755204d0",
          "transactionIndex": "0xa",
          "logIndex": "0x11",
          "removed": false
        }
      ],
      "logsBloom": "0x00000000000000000000000000000000000000000000000000000000000000000000000000000000000000000000000008000000000000000000000000000000000000000000000000000000002000000000000000000000000001000000000000000000000000000000000000000040000000000000000000000000000000000000000000000000000000000000000000000000080000000000000000000000000001000000000000000000000020000000000000000000000000000000000000000000000000000008000000000000000000000000000000000000000000000001000000000000000000000000000000000000000000000000000000000000",
      "type": "0x2",
      "transactionHash": "0x201bb22df71f27c5afcd97f1f8b4fe353d768fab2ed00f9eafd554c0755204d0",
      "transactionIndex": "0xa",
      "blockHash": "0x403ab1aba2c89099845276dd213e61edc30e3b7860f1ac4a473d516e53e76926",
      "blockNumber": "0xf2d7bb",
      "gasUsed": "0x459ca",
      "effectiveGasPrice": "0x17fb474601",
      "from": "0x5cef0422163e7bfc7368c5c0ccfd07c7b943572c",
      "to": "0x482d224436c9d3794a0f9abf6396c90a681462c2",
      "contractAddress": null
    },
    {
      "status": "0x1",
      "cumulativeGasUsed": "0x2ff3e5",
      "logs": [
        {
          "address": "0x482d224436c9d3794a0f9abf6396c90a681462c2",
          "topics": [
            "0x6f32195b7d0d8b110adfb4d94d26620ec7319053a80302562d6dbbd62805ba9f",
            "0xa9520e280637745d645b8f0b6eaeece63faa39c73fab6b7316618e9c33046a32"
          ],
          "data": "0x00000000000000000000000000000000000000000000000000000000000000600000000000000000000000000000000000000000000000000000000069cb6ff50000000000000000000000005cef0422163e7bfc7368c5c0ccfd07c7b943572c000000000000000000000000000000000000000000000000000000000000005257696c6c204d6963686967616e205374617465206265617420496e6469616e6120696e207468656972204d617263682031204269672054656e20636f6c6c656765206261736b657462616c6c2067616d653f0000000000000000000000000000",
          "blockHash": "0x403ab1aba2c89099845276dd213e61edc30e3b7860f1ac4a473d516e53e76926",
          "blockNumber": "0xf2d7bb",
          "blockTimestamp": "0x69a3e301",
          "transactionHash": "0x50c812703914532a9091c7565c3669c1c31da5d4d1df3f19fdbb76f9e25845b1",
          "transactionIndex": "0xb",
          "logIndex": "0x12",
          "removed": false
        }
      ],
      "logsBloom": "0x00000000000010000000000000000000000000000000000000000000000000000000000000000000000000000000000008000000000000000000000000000000000000000020000000000000002000000000000000000000000000000000000000000000000000000000000000000040000000000000000000000000000000000000000000000000000000000000000000000000000000000000000000000000000001000000000000000000000020000000000000000000000000000000000000000000000000000008000000000000000000000000000000000000100000000000000000000000000000000000000000000000000000000000000000000000",
      "type": "0x2",
      "transactionHash": "0x50c812703914532a9091c7565c3669c1c31da5d4d1df3f19fdbb76f9e25845b1",
      "transactionIndex": "0xb",
      "blockHash": "0x403ab1aba2c89099845276dd213e61edc30e3b7860f1ac4a473d516e53e76926",
      "blockNumber": "0xf2d7bb",
      "gasUsed": "0x4dc5d",
      "effectiveGasPrice": "0x17fb474601",
      "from": "0x5cef0422163e7bfc7368c5c0ccfd07c7b943572c",
      "to": "0x482d224436c9d3794a0f9abf6396c90a681462c2",
      "contractAddress": null
    },
    {
      "status": "0x1",
      "cumulativeGasUsed": "0x348a4d",
      "logs": [
        {
          "address": "0x482d224436c9d3794a0f9abf6396c90a681462c2",
          "topics": [
            "0x6f32195b7d0d8b110adfb4d94d26620ec7319053a80302562d6dbbd62805ba9f",
            "0x51d95b7bb3c52356587633bed4e5b5beccd7688b0f0f8dc1b93dd8f00d623303"
          ],
          "data": "0x00000000000000000000000000000000000000000000000000000000000000600000000000000000000000000000000000000000000000000000000069cb6ff50000000000000000000000005cef0422163e7bfc7368c5c0ccfd07c7b943572c000000000000000000000000000000000000000000000000000000000000004657696c6c2052616e6765727320626561742043656c74696320696e207468652053636f7474697368205072656d69657273686970206f6e204d6172636820312c20323032363f0000000000000000000000000000000000000000000000000000",
          "blockHash": "0x403ab1aba2c89099845276dd213e61edc30e3b7860f1ac4a473d516e53e76926",
          "blockNumber": "0xf2d7bb",
          "blockTimestamp": "0x69a3e301",
          "transactionHash": "0x205fe1c751417ff92c67d3f44f1035c7b529477a9243e9b34ce4c961c0d0d4fe",
          "transactionIndex": "0xc",
          "logIndex": "0x13",
          "removed": false
        }
      ],
      "logsBloom": "0x00000000000000000000000000000000000000000000000000000000000000000000000000000000000000000000000008000000000000000000000000000000000000000000000000000000002000000000000000000000000000000000000000000000000000000000000000000040000000000000000000000000000000000000000000000000000000000000000000000000000000000000000000000000000001000000000000000000000020000000000000000200000000000000000000000000000000000008000000400000000000000000000000000000000000000000000000000000000000400000000000000000000000000000000000000000",
      "type": "0x2",
      "transactionHash": "0x205fe1c751417ff92c67d3f44f1035c7b529477a9243e9b34ce4c961c0d0d4fe",
      "transactionIndex": "0xc",
      "blockHash": "0x403ab1aba2c89099845276dd213e61edc30e3b7860f1ac4a473d516e53e76926",
      "blockNumber": "0xf2d7bb",
      "gasUsed": "0x49668",
      "effectiveGasPrice": "0x17fb474601",
      "from": "0x5cef0422163e7bfc7368c5c0ccfd07c7b943572c",
      "to": "0x482d224436c9d3794a0f9abf6396c90a681462c2",
      "contractAddress": null
    },
    {
      "status": "0x1",
      "cumulativeGasUsed": "0x396687",
      "logs": [
        {
          "address": "0x482d224436c9d3794a0f9abf6396c90a681462c2",
          "topics": [
            "0x6f32195b7d0d8b110adfb4d94d26620ec7319053a80302562d6dbbd62805ba9f",
            "0x4b227cdb3aeef50ef5c08ebfff5f9e41967d3aced524b047061ff0d6173d7efb"
          ],
          "data": "0x00000000000000000000000000000000000000000000000000000000000000600000000000000000000000000000000000000000000000000000000069cb6ff50000000000000000000000005cef0422163e7bfc7368c5c0ccfd07c7b943572c000000000000000000000000000000000000000000000000000000000000005041742074686520436f676e697a616e7420436c61737369632028504741292c2077696c6c206120746f702d323020776f726c642072616e6b656420676f6c6665722077696e20746865206576656e743f00000000000000000000000000000000",
          "blockHash": "0x403ab1aba2c89099845276dd213e61edc30e3b7860f1ac4a473d516e53e76926",
          "blockNumber": "0xf2d7bb",
          "blockTimestamp": "0x69a3e301",
          "transactionHash": "0x741f2ac9665322b68e8323edc5165b1c2cdafbd920a8892db194051fd8b16407",
          "transactionIndex": "0xd",
          "logIndex": "0x14",
          "removed": false
        }
      ],
      "logsBloom": "0x00000000000000000000000000000000000000000000000000000000000000000000000000000000000000000000000008000000000000000008000000000200000000000000000000000000002000000000000000000000000000000000000000000000000000000000000000000040000000000000000000000000000000000000000000000000000000000000000000000000000000000000000000000000000001000000000000000000000020000000000000000000000000000000000000000000000000000008000000000000000000000000000000000000000000000000000000000000000000000000000000000000000000000000000800000000",
      "type": "0x2",
      "transactionHash": "0x741f2ac9665322b68e8323edc5165b1c2cdafbd920a8892db194051fd8b16407",
      "transactionIndex": "0xd",
      "blockHash": "0x403ab1aba2c89099845276dd213e61edc30e3b7860f1ac4a473d516e53e76926",
      "blockNumber": "0xf2d7bb",
      "gasUsed": "0x4dc3a",
      "effectiveGasPrice": "0x17fb474601",
      "from": "0x5cef0422163e7bfc7368c5c0ccfd07c7b943572c",
      "to": "0x482d224436c9d3794a0f9abf6396c90a681462c2",
      "contractAddress": null
    }
  ],
  "libraries": [],
  "pending": [],
  "returns": {},
  "timestamp": 1772348163500,
  "chain": 10143,
  "commit": null
}