{
  "transactions": [
    {
      "hash": "0x514647efbb354fbe829d952965b68699f1326c9d306808b82273e42ccc6301c3",
      "transactionType": "CALL",
      "contractName": null,
      "contractAddress": "0x838524ef32eba1c481573cebde9533cb5b8a659a",
      "function": "createMarket(string,uint256,address)",
      "arguments": [
        "Will Bitcoin exceed $150,000 by December 31, 2026?",
        "1798761600",
        "0x5cEf0422163E7bfc7368c5C0CcFd07c7B943572c"
      ],
      "transaction": {
        "from": "0x5cef0422163e7bfc7368c5c0ccfd07c7b943572c",
        "to": "0x838524ef32eba1c481573cebde9533cb5b8a659a",
        "gas": "0x458bd",
        "value": "0x0",
        "input": "0x576cf9d00000000000000000000000000000000000000000000000000000000000000060000000000000000000000000000000000000000000000000000000006b36ec800000000000000000000000005cef0422163e7bfc7368c5c0ccfd07c7b943572c000000000000000000000000000000000000000000000000000000000000003257696c6c20426974636f696e2065786365656420243135302c30303020627920446563656d6265722033312c20323032363f0000000000000000000000000000",
        "nonce": "0x24",
        "chainId": "0x279f"
      },
      "additionalContracts": [],
      "isFixedGasLimit": false
    },
    {
      "hash": "0xd5b756edfd8c578aec24306e7844bd99e14025b7a4b7d30f6c8a43173ed949c2",
      "transactionType": "CALL",
      "contractName": null,
      "contractAddress": "0x838524ef32eba1c481573cebde9533cb5b8a659a",
      "function": "createMarket(string,uint256,address)",
      "arguments": [
        "Will Ethereum ETF inflows surpass $50B by end of 2026?",
        "1798761600",
        "0x5cEf0422163E7bfc7368c5C0CcFd07c7B943572c"
      ],
      "transaction": {
        "from": "0x5cef0422163e7bfc7368c5c0ccfd07c7b943572c",
        "to": "0x838524ef32eba1c481573cebde9533cb5b8a659a",
        "gas": "0x45903",
        "value": "0x0",
        "input": "0x576cf9d00000000000000000000000000000000000000000000000000000000000000060000000000000000000000000000000000000000000000000000000006b36ec800000000000000000000000005cef0422163e7bfc7368c5c0ccfd07c7b943572c000000000000000000000000000000000000000000000000000000000000003657696c6c20457468657265756d2045544620696e666c6f77732073757270617373202435304220627920656e64206f6620323032363f00000000000000000000",
        "nonce": "0x25",
        "chainId": "0x279f"
      },
      "additionalContracts": [],
      "isFixedGasLimit": false
    },
    {
      "hash": "0xfe58830bc49e4e0e545412cf022118f349f96f7852d05b9646edb03c857f4262",
      "transactionType": "CALL",
      "contractName": null,
      "contractAddress": "0x838524ef32eba1c481573cebde9533cb5b8a659a",
      "function": "createMarket(string,uint256,address)",
      "arguments": [
        "Will the S&P 500 close above 6000 at any point in 2026?",
        "1798761600",
        "0x5cEf0422163E7bfc7368c5C0CcFd07c7B943572c"
      ],
      "transaction": {
        "from": "0x5cef0422163e7bfc7368c5c0ccfd07c7b943572c",
        "to": "0x838524ef32eba1c481573cebde9533cb5b8a659a",
        "gas": "0x41b3e",
        "value": "0x0",
        "input": "0x576cf9d00000000000000000000000000000000000000000000000000000000000000060000000000000000000000000000000000000000000000000000000006b36ec800000000000000000000000005cef0422163e7bfc7368c5c0ccfd07c7b943572c000000000000000000000000000000000000000000000000000000000000003757696c6c20746865205326502035303020636c6f73652061626f7665203630303020617420616e7920706f696e7420696e20323032363f000000000000000000",
        "nonce": "0x26",
        "chainId": "0x279f"
      },
      "additionalContracts": [],
      "isFixedGasLimit": false
    },
    {
      "hash": "0xfaec070cb297c6d65c19e452e7413fbc83afb9d0130bc5b41c05ec7f98c6e3ef",
      "transactionType": "CALL",
      "contractName": null,
      "contractAddress": "0x838524ef32eba1c481573cebde9533cb5b8a659a",
      "function": "createMarket(string,uint256,address)",
      "arguments": [
        "Will SpaceX successfully land humans on Mars before 2030?",
        "1924905600",
        "0x5cEf0422163E7bfc7368c5C0CcFd07c7B943572c"
      ],
      "transaction": {
        "from": "0x5cef0422163e7bfc7368c5c0ccfd07c7b943572c",
        "to": "0x838524ef32eba1c481573cebde9533cb5b8a659a",
        "gas": "0x41b5e",
        "value": "0x0",
        "input": "0x576cf9d000000000000000000000000000000000000000000000000000000000000000600000000000000000000000000000000000000000000000000000000072bbba800000000000000000000000005cef0422163e7bfc7368c5c0ccfd07c7b943572c000000000000000000000000000000000000000000000000000000000000003957696c6c20537061636558207375636365737366756c6c79206c616e642068756d616e73206f6e204d617273206265666f726520323033303f00000000000000",
        "nonce": "0x27",
        "chainId": "0x279f"
      },
      "additionalContracts": [],
      "isFixedGasLimit": false
    },
    {
      "hash": "0x139385429d4ae33448245b5956af747652166012df5ef6b7cfddfae61aee413f",
      "transactionType": "CALL",
      "contractName": null,
      "contractAddress": "0x838524ef32eba1c481573cebde9533cb5b8a659a",
      "function": "createMarket(string,uint256,address)",
      "arguments": [
        "Will an AI system win a Nobel Prize before 2035?",
        "2082758400",
        "0x5cEf0422163E7bfc7368c5C0CcFd07c7B943572c"
      ],
      "transaction": {
        "from": "0x5cef0422163e7bfc7368c5c0ccfd07c7b943572c",
        "to": "0x838524ef32eba1c481573cebde9533cb5b8a659a",
        "gas": "0x41ab9",
        "value": "0x0",
        "input": "0x576cf9d00000000000000000000000000000000000000000000000000000000000000060000000000000000000000000000000000000000000000000000000007c245f000000000000000000000000005cef0422163e7bfc7368c5c0ccfd07c7b943572c000000000000000000000000000000000000000000000000000000000000003057696c6c20616e2041492073797374656d2077696e2061204e6f62656c205072697a65206265666f726520323033353f00000000000000000000000000000000",
        "nonce": "0x28",
        "chainId": "0x279f"
      },
      "additionalContracts": [],
      "isFixedGasLimit": false
    },
    {
      "hash": "0x9e2bf10aaca6b15b70fbf4beae239667753d5a3dedc9d4ae59f7d33ace1b2e2f",
      "transactionType": "CALL",
      "contractName": null,
      "contractAddress": "0x838524ef32eba1c481573cebde9533cb5b8a659a",
      "function": "createMarket(string,uint256,address)",
      "arguments": [
        "Will a BRICS nation launch a CBDC used by over 100M people by 2028?",
        "1861920000",
        "0x5cEf0422163E7bfc7368c5C0CcFd07c7B943572c"
      ],
      "transaction": {
        "from": "0x5cef0422163e7bfc7368c5c0ccfd07c7b943572c",
        "to": "0x838524ef32eba1c481573cebde9533cb5b8a659a",
        "gas": "0x495cd",
        "value": "0x0",
        "input": "0x576cf9d00000000000000000000000000000000000000000000000000000000000000060000000000000000000000000000000000000000000000000000000006efaa5000000000000000000000000005cef0422163e7bfc7368c5c0ccfd07c7b943572c000000000000000000000000000000000000000000000000000000000000004357696c6c2061204252494353206e6174696f6e206c61756e6368206120434244432075736564206279206f766572203130304d2070656f706c6520627920323032383f0000000000000000000000000000000000000000000000000000000000",
        "nonce": "0x29",
        "chainId": "0x279f"
      },
      "additionalContracts": [],
      "isFixedGasLimit": false
    },
    {
      "hash": "0x4b78e1aa3cb109b58b54c252a939fbe550b28258991649adc654813e35bc2c00",
      "transactionType": "CALL",
      "contractName": null,
      "contractAddress": "0x838524ef32eba1c481573cebde9533cb5b8a659a",
      "function": "createMarket(string,uint256,address)",
      "arguments": [
        "Will the Lakers beat the Warriors in their March 1, 2026 NBA matchup?",
        "1774917112",
        "0x5cEf0422163E7bfc7368c5C0CcFd07c7B943572c"
      ],
      "transaction": {
        "from": "0x5cef0422163e7bfc7368c5c0ccfd07c7b943572c",
        "to": "0x838524ef32eba1c481573cebde9533cb5b8a659a",
        "gas": "0x495ff",
        "value": "0x0",
        "input": "0x576cf9d000000000000000000000000000000000000000000000000000000000000000600000000000000000000000000000000000000000000000000000000069cb15f80000000000000000000000005cef0422163e7bfc7368c5c0ccfd07c7b943572c000000000000000000000000000000000000000000000000000000000000004557696c6c20746865204c616b6572732062656174207468652057617272696f727320696e207468656972204d6172636820312c2032303236204e4241206d6174636875703f000000000000000000000000000000000000000000000000000000",
        "nonce": "0x2a",
        "chainId": "0x279f"
      },
      "additionalContracts": [],
      "isFixedGasLimit": false
    },
    {
      "hash": "0xaca7bed37805decfb3ebc6eab80d3739ec61151066207b022b2ff5ee7a09fe25",
      "transactionType": "CALL",
      "contractName": null,
      "contractAddress": "0x838524ef32eba1c481573cebde9533cb5b8a659a",
      "function": "createMarket(string,uint256,address)",
      "arguments": [
        "Will the 76ers cover the spread vs Celtics on March 1, 2026?",
        "1774917112",
        "0x5cEf0422163E7bfc7368c5C0CcFd07c7B943572c"
      ],
      "transaction": {
        "from": "0x5cef0422163e7bfc7368c5c0ccfd07c7b943572c",
        "to": "0x838524ef32eba1c481573cebde9533cb5b8a659a",
        "gas": "0x4596c",
        "value": "0x0",
        "input": "0x576cf9d000000000000000000000000000000000000000000000000000000000000000600000000000000000000000000000000000000000000000000000000069cb15f80000000000000000000000005cef0422163e7bfc7368c5c0ccfd07c7b943572c000000000000000000000000000000000000000000000000000000000000003c57696c6c2074686520373665727320636f76657220746865207370726561642076732043656c74696373206f6e204d6172636820312c20323032363f00000000",
        "nonce": "0x2b",
        "chainId": "0x279f"
      },
      "additionalContracts": [],
      "isFixedGasLimit": false
    },
    {
      "hash": "0x2f52a1c4b15418d0330d751ed653886140594857396dfede13b886d5836dbe5a",
      "transactionType": "CALL",
      "contractName": null,
      "contractAddress": "0x838524ef32eba1c481573cebde9533cb5b8a659a",
      "function": "createMarket(string,uint256,address)",
      "arguments": [
        "Will Michigan State beat Indiana in their March 1 Big Ten college basketball game?",
        "1774917112",
        "0x5cEf0422163E7bfc7368c5C0CcFd07c7B943572c"
      ],
      "transaction": {
        "from": "0x5cef0422163e7bfc7368c5c0ccfd07c7b943572c",
        "to": "0x838524ef32eba1c481573cebde9533cb5b8a659a",
        "gas": "0x4dbff",
        "value": "0x0",
        "input": "0x576cf9d000000000000000000000000000000000000000000000000000000000000000600000000000000000000000000000000000000000000000000000000069cb15f80000000000000000000000005cef0422163e7bfc7368c5c0ccfd07c7b943572c000000000000000000000000000000000000000000000000000000000000005257696c6c204d6963686967616e205374617465206265617420496e6469616e6120696e207468656972204d617263682031204269672054656e20636f6c6c656765206261736b657462616c6c2067616d653f0000000000000000000000000000",
        "nonce": "0x2c",
        "chainId": "0x279f"
      },
      "additionalContracts": [],
      "isFixedGasLimit": false
    },
    {
      "hash": "0x994df3a32315133b30f8d9c4f97d1cfd80139fe17fac98f42ba728aafb1edd99",
      "transactionType": "CALL",
      "contractName": null,
      "contractAddress": "0x838524ef32eba1c481573cebde9533cb5b8a659a",
      "function": "createMarket(string,uint256,address)",
      "arguments": [
        "Will Rangers beat Celtic in the Scottish Premiership on March 1, 2026?",
        "1774917112",
        "0x5cEf0422163E7bfc7368c5C0CcFd07c7B943572c"
      ],
      "transaction": {
        "from": "0x5cef0422163e7bfc7368c5c0ccfd07c7b943572c",
        "to": "0x838524ef32eba1c481573cebde9533cb5b8a659a",
        "gas": "0x49610",
        "value": "0x0",
        "input": "0x576cf9d000000000000000000000000000000000000000000000000000000000000000600000000000000000000000000000000000000000000000000000000069cb15f80000000000000000000000005cef0422163e7bfc7368c5c0ccfd07c7b943572c000000000000000000000000000000000000000000000000000000000000004657696c6c2052616e6765727320626561742043656c74696320696e207468652053636f7474697368205072656d69657273686970206f6e204d6172636820312c20323032363f0000000000000000000000000000000000000000000000000000",
        "nonce": "0x2d",
        "chainId": "0x279f"
      },
      "additionalContracts": [],
      "isFixedGasLimit": false
    },
    {
      "hash": "0x9c1756095829b97b8c420eca6c3be1541009eddf7b6c7e33e2f41a962cdece80",
      "transactionType": "CALL",
      "contractName": null,
      "contractAddress": "0x838524ef32eba1c481573cebde9533cb5b8a659a",
      "function": "createMarket(string,uint256,address)",
      "arguments": [
        "At the Cognizant Classic (PGA), will a top-20 world ranked golfer win the event?",
        "1774917112",
        "0x5cEf0422163E7bfc7368c5C0CcFd07c7B943572c"
      ],
      "transaction": {
        "from": "0x5cef0422163e7bfc7368c5c0ccfd07c7b943572c",
        "to": "0x838524ef32eba1c481573cebde9533cb5b8a659a",
        "gas": "0x4dbdc",
        "value": "0x0",
        "input": "0x576cf9d000000000000000000000000000000000000000000000000000000000000000600000000000000000000000000000000000000000000000000000000069cb15f80000000000000000000000005cef0422163e7bfc7368c5c0ccfd07c7b943572c000000000000000000000000000000000000000000000000000000000000005041742074686520436f676e697a616e7420436c61737369632028504741292c2077696c6c206120746f702d323020776f726c642072616e6b656420676f6c6665722077696e20746865206576656e743f00000000000000000000000000000000",
        "nonce": "0x2e",
        "chainId": "0x279f"
      },
      "additionalContracts": [],
      "isFixedGasLimit": false
    }
  ],
  "receipts": [
    {
      "status": "0x1",
      "cumulativeGasUsed": "0xd8f3d",
      "logs": [
        {
          "address": "0x838524ef32eba1c481573cebde9533cb5b8a659a",
          "topics": [
            "0x6f32195b7d0d8b110adfb4d94d26620ec7319053a80302562d6dbbd62805ba9f",
            "0x05626d675cbd05ed13b901e9fed4824923962679a99b85da6eec55fd3cc5754c"
          ],
          "data": "0x0000000000000000000000000000000000000000000000000000000000000060000000000000000000000000000000000000000000000000000000006b36ec800000000000000000000000005cef0422163e7bfc7368c5c0ccfd07c7b943572c000000000000000000000000000000000000000000000000000000000000003257696c6c20426974636f696e2065786365656420243135302c30303020627920446563656d6265722033312c20323032363f0000000000000000000000000000",
          "blockHash": "0xc1a5d2eb23d4f0cb0eec03e8e97789c1944166f663131e12b6d3fa5bf0232d81",
          "blockNumber": "0xf1f73f",
          "blockTimestamp": "0x69a38900",
          "transactionHash": "0x514647efbb354fbe829d952965b68699f1326c9d306808b82273e42ccc6301c3",
          "transactionIndex": "0x5",
          "logIndex": "0x10",
          "removed": false
        }
      ],
      "logsBloom": "0x00000000000000000000000000000000000000000000000001000000000000000000000000000000000000000000000008000000000000000000000000000000000000000000000000000000000000000000000000000000000000200000000000000000000000000000000000000000000000000000000000000000000000000000002000000000000000000000000000000000000000000001000000000000000001000000000000000000000000000000000000000000000000000000000000000000000000000008000000000000000000000400000000040000000000000000000000000000000000000000000000000000000000000000000000000000",
      "type": "0x2",
      "transactionHash": "0x514647efbb354fbe829d952965b68699f1326c9d306808b82273e42ccc6301c3",
      "transactionIndex": "0x5",
      "blockHash": "0xc1a5d2eb23d4f0cb0eec03e8e97789c1944166f663131e12b6d3fa5bf0232d81",
      "blockNumber": "0xf1f73f",
      "gasUsed": "0x458bd",
      "effectiveGasPrice": "0x17fb474600",
      "from": "0x5cef0422163e7bfc7368c5c0ccfd07c7b943572c",
      "to": "0x838524ef32eba1c481573cebde9533cb5b8a659a",
      "contractAddress": null
    },
    {
      "status": "0x1",
      "cumulativeGasUsed": "0x11e840",
      "logs": [
        {
          "address": "0x838524ef32eba1c481573cebde9533cb5b8a659a",
          "topics": [
            "0x6f32195b7d0d8b110adfb4d94d26620ec7319053a80302562d6dbbd62805ba9f",
            "0xe16d2f3ef4198af18f8a9d8e915c9eaf67b73388e2111356574003791a2611c3"
          ],
          "data": "0x0000000000000000000000000000000000000000000000000000000000000060000000000000000000000000000000000000000000000000000000006b36ec800000000000000000000000005cef0422163e7bfc7368c5c0ccfd07c7b943572c000000000000000000000000000000000000000000000000000000000000003657696c6c20457468657265756d2045544620696e666c6f77732073757270617373202435304220627920656e64206f6620323032363f00000000000000000000",
          "blockHash": "0xc1a5d2eb23d4f0cb0eec03e8e97789c1944166f663131e12b6d3fa5bf0232d81",
          "blockNumber": "0xf1f73f",
          "blockTimestamp": "0x69a38900",
          "transactionHash": "0xd5b756edfd8c578aec24306e7844bd99e14025b7a4b7d30f6c8a43173ed949c2",
          "transactionIndex": "0x6",
          "logIndex": "0x11",
          "removed": false
        }
      ],
      "logsBloom": "0x00000000000000000000000000000000000000000800000000000000000000000000000000000000000000000000020008000000000000000000000000000000000000000000000000000000000000000000000000000000000000200000000000000000000000000000000000000000000000000000000000000000100000000000000000000000000000000000000000000000000000000000000000000000000001000000000000000000000000000000000000000000000000000000000000000000000000000008000000000000000000000400000000040000000000000000000000000000000000000000000000000000000000000000000000000000",
      "type": "0x2",
      "transactionHash": "0xd5b756edfd8c578aec24306e7844bd99e14025b7a4b7d30f6c8a43173ed949c2",
      "transactionIndex": "0x6",
      "blockHash": "0xc1a5d2eb23d4f0cb0eec03e8e97789c1944166f663131e12b6d3fa5bf0232d81",
      "blockNumber": "0xf1f73f",
      "gasUsed": "0x45903",
      "effectiveGasPrice": "0x17fb474600",
      "from": "0x5cef0422163e7bfc7368c5c0ccfd07c7b943572c",
      "to": "0x838524ef32eba1c481573cebde9533cb5b8a659a",
      "contractAddress": null
    },
    {
      "status": "0x1",
      "cumulativeGasUsed": "0x16037e",
      "logs": [
        {
          "address": "0x838524ef32eba1c481573cebde9533cb5b8a659a",
          "topics": [
            "0x6f32195b7d0d8b110adfb4d94d26620ec7319053a80302562d6dbbd62805ba9f",
            "0xa9c19fd76f457ecfbb26524abb45fc01d15c111676fd22956d8f89cb18418f01"
          ],
          "data": "0x0000000000000000000000000000000000000000000000000000000000000060000000000000000000000000000000000000000000000000000000006b36ec800000000000000000000000005cef0422163e7bfc7368c5c0ccfd07c7b943572c000000000000000000000000000000000000000000000000000000000000003757696c6c20746865205326502035303020636c6f73652061626f7665203630303020617420616e7920706f696e7420696e20323032363f000000000000000000",
          "blockHash": "0xc1a5d2eb23d4f0cb0eec03e8e97789c1944166f663131e12b6d3fa5bf0232d81",
          "blockNumber": "0xf1f73f",
          "blockTimestamp": "0x69a38900",
          "transactionHash": "0xfe58830bc49e4e0e545412cf022118f349f96f7852d05b9646edb03c857f4262",
          "transactionIndex": "0x7",
          "logIndex": "0x12",
          "removed": false
        }
      ],
      "logsBloom": "0x00000000000000000000000000000000000000000000000000000000000000000000000000000000000010000000000008000000000000000000000000000000000000000000000000000000000000000000000000000000000000200000000000000000000000000200000000000000000000000000000000000000000000000000000000000000000000000000000000000000000000000000000000000000000001000000000000000000000000000000000000000000000000000000000000000000000000000008000000000000000000000400000000040000000000000000000000000800000000000000000000000000000000000000000000000000",
      "type": "0x2",
      "transactionHash": "0xfe58830bc49e4e0e545412cf022118f349f96f7852d05b9646edb03c857f4262",
      "transactionIndex": "0x7",
      "blockHash": "0xc1a5d2eb23d4f0cb0eec03e8e97789c1944166f663131e12b6d3fa5bf0232d81",
      "blockNumber": "0xf1f73f",
      "gasUsed": "0x41b3e",
      "effectiveGasPrice": "0x17fb474600",
      "from": "0x5cef0422163e7bfc7368c5c0ccfd07c7b943572c",
      "to": "0x838524ef32eba1c481573cebde9533cb5b8a659a",
      "contractAddress": null
    },
    {
      "status": "0x1",
      "cumulativeGasUsed": "0x1a1edc",
      "logs": [
        {
          "address": "0x838524ef32eba1c481573cebde9533cb5b8a659a",
          "topics": [
            "0x6f32195b7d0d8b110adfb4d94d26620ec7319053a80302562d6dbbd62805ba9f",
            "0x19e5afea99853b28f57fa4e8f5d12f66af6fbb740ae2a70a5a93b88e16d8409c"
          ],
          "data": "0x00000000000000000000000000000000000000000000000000000000000000600000000000000000000000000000000000000000000000000000000072bbba800000000000000000000000005cef0422163e7bfc7368c5c0ccfd07c7b943572c000000000000000000000000000000000000000000000000000000000000003957696c6c20537061636558207375636365737366756c6c79206c616e642068756d616e73206f6e204d617273206265666f726520323033303f00000000000000",
          "blockHash": "0xc1a5d2eb23d4f0cb0eec03e8e97789c1944166f663131e12b6d3fa5bf0232d81",
          "blockNumber": "0xf1f73f",
          "blockTimestamp": "0x69a38900",
          "transactionHash": "0xfaec070cb297c6d65c19e452e7413fbc83afb9d0130bc5b41c05ec7f98c6e3ef",
          "transactionIndex": "0x8",
          "logIndex": "0x13",
          "removed": false
        }
      ],
      "logsBloom": "0x00000000000000000000000000008000040000000000000000000000000000000000000000000000000000000000000008000000000000000000000000000000000000000000000000000000000000000000000000000000000000200000000000000000000000000000000000000000000000000000000000000000000000000000000000000000000000000000000000000000000000000004000000000000000001000000000000000000000000000000000000000000000000000000000000000000000000000008000000000000000000000400000000040000000000000000000000000000000000000000000000000000000000000000000000000000",
      "type": "0x2",
      "transactionHash": "0xfaec070cb297c6d65c19e452e7413fbc83afb9d0130bc5b41c05ec7f98c6e3ef",
      "transactionIndex": "0x8",
      "blockHash": "0xc1a5d2eb23d4f0cb0eec03e8e97789c1944166f663131e12b6d3fa5bf0232d81",
      "blockNumber": "0xf1f73f",
      "gasUsed": "0x41b5e",
      "effectiveGasPrice": "0x17fb474600",
      "from": "0x5cef0422163e7bfc7368c5c0ccfd07c7b943572c",
      "to": "0x838524ef32eba1c481573cebde9533cb5b8a659a",
      "contractAddress": null
    },
    {
      "status": "0x1",
      "cumulativeGasUsed": "0x1e3995",
      "logs": [
        {
          "address": "0x838524ef32eba1c481573cebde9533cb5b8a659a",
          "topics": [
            "0x6f32195b7d0d8b110adfb4d94d26620ec7319053a80302562d6dbbd62805ba9f",
            "0xbeff0c67af3b5d3559c6acc09479b2c2ef7c97279bd68d57b519aed8f43ab6fd"
          ],
          "data": "0x0000000000000000000000000000000000000000000000000000000000000060000000000000000000000000000000000000000000000000000000007c245f000000000000000000000000005cef0422163e7bfc7368c5c0ccfd07c7b943572c000000000000000000000000000000000000000000000000000000000000003057696c6c20616e2041492073797374656d2077696e2061204e6f62656c205072697a65206265666f726520323033353f00000000000000000000000000000000",
          "blockHash": "0xc1a5d2eb23d4f0cb0eec03e8e97789c1944166f663131e12b6d3fa5bf0232d81",
          "blockNumber": "0xf1f73f",
          "blockTimestamp": "0x69a38900",
          "transactionHash": "0x139385429d4ae33448245b5956af747652166012df5ef6b7cfddfae61aee413f",
          "transactionIndex": "0x9",
          "logIndex": "0x14",
          "removed": false
        }
      ],
      "logsBloom": "0x00000000000000000000000000000000000000000000000000000000000000000000000000000000000000000000000008000000000000000000000000000000000000000000100000000000000000000000000000000000000000200000000000000000000000000000000000000000000000000000000000000000000000000000000000000000000000000400000000000000000000000000000000000000000001000000000000000000000000000000000000010000000000000000000000000000000000000008000000000000000000000400000000040000000000000000000000000000000000000000000000000000000000000000000000000000",
      "type": "0x2",
      "transactionHash": "0x139385429d4ae33448245b5956af747652166012df5ef6b7cfddfae61aee413f",
      "transactionIndex": "0x9",
      "blockHash": "0xc1a5d2eb23d4f0cb0eec03e8e97789c1944166f663131e12b6d3fa5bf0232d81",
      "blockNumber": "0xf1f73f",
      "gasUsed": "0x41ab9",
      "effectiveGasPrice": "0x17fb474600",
      "from": "0x5cef0422163e7bfc7368c5c0ccfd07c7b943572c",
      "to": "0x838524ef32eba1c481573cebde9533cb5b8a659a",
      "contractAddress": null
    },
    {
      "status": "0x1",
      "cumulativeGasUsed": "0x22cf62",
      "logs": [
        {
          "address": "0x838524ef32eba1c481573cebde9533cb5b8a659a",
          "topics": [
            "0x6f32195b7d0d8b110adfb4d94d26620ec7319053a80302562d6dbbd62805ba9f",
            "0xca01a6dfb73151bcbf78cf60d383d1101e3f3a161ec8181376803df233092411"
          ],
          "data": "0x0000000000000000000000000000000000000000000000000000000000000060000000000000000000000000000000000000000000000000000000006efaa5000000000000000000000000005cef0422163e7bfc7368c5c0ccfd07c7b943572c000000000000000000000000000000000000000000000000000000000000004357696c6c2061204252494353206e6174696f6e206c61756e6368206120434244432075736564206279206f766572203130304d2070656f706c6520627920323032383f0000000000000000000000000000000000000000000000000000000000",
          "blockHash": "0xc1a5d2eb23d4f0cb0eec03e8e97789c1944166f663131e12b6d3fa5bf0232d81",
          "blockNumber": "0xf1f73f",
          "blockTimestamp": "0x69a38900",
          "transactionHash": "0x9e2bf10aaca6b15b70fbf4beae239667753d5a3dedc9d4ae59f7d33ace1b2e2f",
          "transactionIndex": "0xa",
          "logIndex": "0x15",
          "removed": false
        }
      ],
      "logsBloom": "0x00000000000000000000000000000000000000000000000000000000000000000000000000000000000000000000000008000000000000000000000000000000000000000000000000000000000000000000000000000000000000200000000000000000000000000000000000000000000000000000000000000000000000000000000000000000000000000000000000000000000000000000000000000000000001000000000000000000000000000000000000000000000000000000000800000000000000000008000000000000000008000400000000040000000000000000000000000000000000000000000000800000000000000000000000000000",
      "type": "0x2",
      "transactionHash": "0x9e2bf10aaca6b15b70fbf4beae239667753d5a3dedc9d4ae59f7d33ace1b2e2f",
      "transactionIndex": "0xa",
      "blockHash": "0xc1a5d2eb23d4f0cb0eec03e8e97789c1944166f663131e12b6d3fa5bf0232d81",
      "blockNumber": "0xf1f73f",
      "gasUsed": "0x495cd",
      "effectiveGasPrice": "0x17fb474600",
      "from": "0x5cef0422163e7bfc7368c5c0ccfd07c7b943572c",
      "to": "0x838524ef32eba1c481573cebde9533cb5b8a659a",
      "contractAddress": null
    },
    {
      "status": "0x1",
      "cumulativeGasUsed": "0x276561",
      "logs": [
        {
          "address": "0x838524ef32eba1c481573cebde9533cb5b8a659a",
          "topics": [
            "0x6f32195b7d0d8b110adfb4d94d26620ec7319053a80302562d6dbbd62805ba9f",
            "0x684699048f3c7c7dd82861e0b940812ed77ee479e7946f3dae4eadc60751dd29"
          ],
          "data": "0x00000000000000000000000000000000000000000000000000000000000000600000000000000000000000000000000000000000000000000000000069cb15f80000000000000000000000005cef0422163e7bfc7368c5c0ccfd07c7b943572c000000000000000000000000000000000000000000000000000000000000004557696c6c20746865204c616b6572732062656174207468652057617272696f727320696e207468656972204d6172636820312c2032303236204e4241206d6174636875703f000000000000000000000000000000000000000000000000000000",
          "blockHash": "0xc1a5d2eb23d4f0cb0eec03e8e97789c1944166f663131e12b6d3fa5bf0232d81",
          "blockNumber": "0xf1f73f",
          "blockTimestamp": "0x69a38900",
          "transactionHash": "0x4b78e1aa3cb109b58b54c252a939fbe550b28258991649adc654813e35bc2c00",
          "transactionIndex": "0xb",
          "logIndex": "0x16",
          "removed": false
        }
      ],
      "logsBloom": "0x00000000000000000000000000000000000000000000000000000000000000008000000000000000000000000000000008000000000000000000000000000000000000000000000000000000000000000000000000000000000000200000000000000000000000000000000000000000000000000000000000000000000000000000000000000000000000000000000000000000000000000000000000000000000001000000000000000000000000000000000000000000000000000080000000000000000000000008000000000000000000000400000000040000000000000000000100000000000000000000000000000000000000000000000000000000",
      "type": "0x2",
      "transactionHash": "0x4b78e1aa3cb109b58b54c252a939fbe550b28258991649adc654813e35bc2c00",
      "transactionIndex": "0xb",
      "blockHash": "0xc1a5d2eb23d4f0cb0eec03e8e97789c1944166f663131e12b6d3fa5bf0232d81",
      "blockNumber": "0xf1f73f",
      "gasUsed": "0x495ff",
      "effectiveGasPrice": "0x17fb474600",
      "from": "0x5cef0422163e7bfc7368c5c0ccfd07c7b943572c",
      "to": "0x838524ef32eba1c481573cebde9533cb5b8a659a",
      "contractAddress": null
    },
    {
      "status": "0x1",
      "cumulativeGasUsed": "0x2bbecd",
      "logs": [
        {
          "address": "0x838524ef32eba1c481573cebde9533cb5b8a659a",
          "topics": [
            "0x6f32195b7d0d8b110adfb4d94d26620ec7319053a80302562d6dbbd62805ba9f",
            "0x2dd6d87c13f207a8e8689dc148df6db16b29e24886f028b0dd4f8d07d871d575"
          ],
          "data": "0x00000000000000000000000000000000000000000000000000000000000000600000000000000000000000000000000000000000000000000000000069cb15f80000000000000000000000005cef0422163e7bfc7368c5c0ccfd07c7b943572c000000000000000000000000000000000000000000000000000000000000003c57696c6c2074686520373665727320636f76657220746865207370726561642076732043656c74696373206f6e204d6172636820312c20323032363f00000000",
          "blockHash": "0xc1a5d2eb23d4f0cb0eec03e8e97789c1944166f663131e12b6d3fa5bf0232d81",
          "blockNumber": "0xf1f73f",
          "blockTimestamp": "0x69a38900",
          "transactionHash": "0xaca7bed37805decfb3ebc6eab80d3739ec61151066207b022b2ff5ee7a09fe25",
          "transactionIndex": "0xc",
          "logIndex": "0x17",
          "removed": false
        }
      ],
      "logsBloom": "0x00000000000000000000000000000000000000000000000000000000000000000000000000000000000000000000000008000000000000000000000000000000000000000000000000000000000000000000000000000000000000200000000000000000000000000000000000000000000000000000000000000000000000000800000000000000000000000000000000000000000000000000000000001000000001000000000000000000000000000000000000000000000000000000000000000000000000000008000000002000000000000400000000040000000000000000000000000000000000000000000000000000000000000000000000000000",
      "type": "0x2",
      "transactionHash": "0xaca7bed37805decfb3ebc6eab80d3739ec61151066207b022b2ff5ee7a09fe25",
      "transactionIndex": "0xc",
      "blockHash": "0xc1a5d2eb23d4f0cb0eec03e8e97789c1944166f663131e12b6d3fa5bf0232d81",
      "blockNumber": "0xf1f73f",
      "gasUsed": "0x4596c",
      "effectiveGasPrice": "0x17fb474600",
      "from": "0x5cef0422163e7bfc7368c5c0ccfd07c7b943572c",
      "to": "0x838524ef32eba1c481573cebde9533cb5b8a659a",
      "contractAddress": null
    },
    {
      "status": "0x1",
      "cumulativeGasUsed": "0x309acc",
      "logs": [
        {
          "address": "0x838524ef32eba1c481573cebde9533cb5b8a659a",
          "topics": [
            "0x6f32195b7d0d8b110adfb4d94d26620ec7319053a80302562d6dbbd62805ba9f",
            "0x64f84f886227c0059789df0ea8bb19d4cf8e2bce4649475e559cfe312712e5b6"
          ],
          "data": "0x00000000000000000000000000000000000000000000000000000000000000600000000000000000000000000000000000000000000000000000000069cb15f80000000000000000000000005cef0422163e7bfc7368c5c0ccfd07c7b943572c000000000000000000000000000000000000000000000000000000000000005257696c6c204d6963686967616e205374617465206265617420496e6469616e6120696e207468656972204d617263682031204269672054656e20636f6c6c656765206261736b657462616c6c2067616d653f0000000000000000000000000000",
          "blockHash": "0xc1a5d2eb23d4f0cb0eec03e8e97789c1944166f663131e12b6d3fa5bf0232d81",
          "blockNumber": "0xf1f73f",
          "blockTimestamp": "0x69a38900",
          "transactionHash": "0x2f52a1c4b15418d0330d751ed653886140594857396dfede13b886d5836dbe5a",
          "transactionIndex": "0xd",
          "logIndex": "0x18",
          "removed": false
        }
      ],
      "logsBloom": "0x00000000000000000000000000000000000000000000000000000000000000000000000000000000000000100000000008000000000000000000000000000000000000000000000000000000000000000000000000000000000000200000000000000000020000000000000000000000000000000000000800000000000000000000000000000000000000000000000000000000000000000000000000000000000001000000000000000000000000000000000000000000000000000000000000000000000000000008000000000000000000000400000000040000000000000000000000000000000000000000000000000000000000000000000000000000",
      "type": "0x2",
      "transactionHash": "0x2f52a1c4b15418d0330d751ed653886140594857396dfede13b886d5836dbe5a",
      "transactionIndex": "0xd",
      "blockHash": "0xc1a5d2eb23d4f0cb0eec03e8e97789c1944166f663131e12b6d3fa5bf0232d81",
      "blockNumber": "0xf1f73f",
      "gasUsed": "0x4dbff",
      "effectiveGasPrice": "0x17fb474600",
      "from": "0x5cef0422163e7bfc7368c5c0ccfd07c7b943572c",
      "to": "0x838524ef32eba1c481573cebde9533cb5b8a659a",
      "contractAddress": null
    },
    {
      "status": "0x1",
      "cumulativeGasUsed": "0x3530dc",
      "logs": [
        {
          "address": "0x838524ef32eba1c481573cebde9533cb5b8a659a",
          "topics": [
            "0x6f32195b7d0d8b110adfb4d94d26620ec7319053a80302562d6dbbd62805ba9f",
            "0x539adfaa2124670cbe5f41e2f6827739e8bd16a3e052ac01d313a25c2b7276a2"
          ],
          "data": "0x00000000000000000000000000000000000000000000000000000000000000600000000000000000000000000000000000000000000000000000000069cb15f80000000000000000000000005cef0422163e7bfc7368c5c0ccfd07c7b943572c000000000000000000000000000000000000000000000000000000000000004657696c6c2052616e6765727320626561742043656c74696320696e207468652053636f7474697368205072656d69657273686970206f6e204d6172636820312c20323032363f0000000000000000000000000000000000000000000000000000",
          "blockHash": "0xc1a5d2eb23d4f0cb0eec03e8e97789c1944166f663131e12b6d3fa5bf0232d81",
          "blockNumber": "0xf1f73f",
          "blockTimestamp": "0x69a38900",
          "transactionHash": "0x994df3a32315133b30f8d9c4f97d1cfd80139fe17fac98f42ba728aafb1edd99",
          "transactionIndex": "0xe",
          "logIndex": "0x19",
          "removed": false
        }
      ],
      "logsBloom": "0x00000000000000000000000000000000000000000000000000000000000000000000000000000000000000000000000008020000000000000000000000000000000000000000000000000000000000000000000000000000000000200000000000000000000000000000000000000000000000000000000000000000000000000000000200000000000000000000000000000000000000000000000000000000000001000000000000000000000000000001000000000000000000000000000000000000000000000008000000000000000000000400000000040000000000000000000000000000000000000000000000000000000000000000000000000000",
      "type": "0x2",
      "transactionHash": "0x994df3a32315133b30f8d9c4f97d1cfd80139fe17fac98f42ba728aafb1edd99",
      "transactionIndex": "0xe",
      "blockHash": "0xc1a5d2eb23d4f0cb0eec03e8e97789c1944166f663131e12b6d3fa5bf0232d81",
      "blockNumber": "0xf1f73f",
      "gasUsed": "0x49610",
      "effectiveGasPrice": "0x17fb474600",
      "from": "0x5cef0422163e7bfc7368c5c0ccfd07c7b943572c",
      "to": "0x838524ef32eba1c481573cebde9533cb5b8a659a",
      "contractAddress": null
    },
    {
      "status": "0x1",
      "cumulativeGasUsed": "0x3a0cb8",
      "logs": [
        {
          "address": "0x838524ef32eba1c481573cebde9533cb5b8a659a",
          "topics": [
            "0x6f32195b7d0d8b110adfb4d94d26620ec7319053a80302562d6dbbd62805ba9f",
            "0xa65752dfeba5f9c324ae1c244d41bf00b86fde5f141fe5b469daead24726c468"
          ],
          "data": "0x00000000000000000000000000000000000000000000000000000000000000600000000000000000000000000000000000000000000000000000000069cb15f80000000000000000000000005cef0422163e7bfc7368c5c0ccfd07c7b943572c000000000000000000000000000000000000000000000000000000000000005041742074686520436f676e697a616e7420436c61737369632028504741292c2077696c6c206120746f702d323020776f726c642072616e6b656420676f6c6665722077696e20746865206576656e743f00000000000000000000000000000000",
          "blockHash": "0xc1a5d2eb23d4f0cb0eec03e8e97789c1944166f663131e12b6d3fa5bf0232d81",
          "blockNumber": "0xf1f73f",
          "blockTimestamp": "0x69a38900",
          "transactionHash": "0x9c1756095829b97b8c420eca6c3be1541009eddf7b6c7e33e2f41a962cdece80",
          "transactionIndex": "0xf",
          "logIndex": "0x1a",
          "removed": false
        }
      ],
      "logsBloom": "0x00000000000000000000000000000000000000000000000000000000000000000000000000000000000000000000000008000000000000000000000000000000000000000000000000000000000000000000000000000000000000200000000000000000000000000000000000000000000100000000000000000000000000000000000000000000000000000000000000000000000000000000000000000000000001000000000000000000000000000000000000000000000000000000000000000000000000000008000000000000000000000400000000040000000000000000000000000004000000000200000000000000000000000000000000000000",
      "type": "0x2",
      "transactionHash": "0x9c1756095829b97b8c420eca6c3be1541009eddf7b6c7e33e2f41a962cdece80",
      "transactionIndex": "0xf",
      "blockHash": "0xc1a5d2eb23d4f0cb0eec03e8e97789c1944166f663131e12b6d3fa5bf0232d81",
      "blockNumber": "0xf1f73f",
      "gasUsed": "0x4dbdc",
      "effectiveGasPrice": "0x17fb474600",
      "from": "0x5cef0422163e7bfc7368c5c0ccfd07c7b943572c",
      "to": "0x838524ef32eba1c481573cebde9533cb5b8a659a",
      "contractAddress": null
    }
  ],
  "libraries": [],
  "pending": [],
  "returns": {},
  "timestamp": 1772325122649,
  "chain": 10143,
  "commit": null
}