{
  "transactions": [
    {
      "hash": "0x1f919e753b8724d27803c7eb6d437d7b586db357247c014c4a9e69a86fb2ac56",
      "transactionType": "CALL",
      "contractName": null,
      "contractAddress": "0x482d224436c9d3794a0f9abf6396c90a681462c2",
      "function": "createMarket(string,uint256,address)",
      "arguments": [
        "Will Bitcoin exceed $150,000 by December 31, 2026?",
        "1798761600",
        "0x5cEf0422163E7bfc7368c5C0CcFd07c7B943572c"
      ],
      "transaction": {
        "from": "0x5cef0422163e7bfc7368c5c0ccfd07c7b943572c",
        "to": "0x482d224436c9d3794a0f9abf6396c90a681462c2",
        "gas": "0x4591a",
        "value": "0x0",
        "input": "0x576cf9d00000000000000000000000000000000000000000000000000000000000000060000000000000000000000000000000000000000000000000000000006b36ec800000000000000000000000005cef0422163e7bfc7368c5c0ccfd07c7b943572c000000000000000000000000000000000000000000000000000000000000003257696c6c20426974636f696e2065786365656420243135302c30303020627920446563656d6265722033312c20323032363f0000000000000000000000000000",
        "nonce": "0x48",
        "chainId": "0x279f"
      },
      "additionalContracts": [],
      "isFixedGasLimit": false
    },
    {
      "hash": "0xa02ebe8cac83e37c0b0498fb28c7dc8003e51ea2281c9424c5830e4e6c9fcddd",
      "transactionType": "CALL",
      "contractName": null,
      "contractAddress": "0x482d224436c9d3794a0f9abf6396c90a681462c2",
      "function": "createMarket(string,uint256,address)",
      "arguments": [
        "Will Ethereum ETF inflows surpass $50B by end of 2026?",
        "1798761600",
        "0x5cEf0422163E7bfc7368c5C0CcFd07c7B943572c"
      ],
      "transaction": {
        "from": "0x5cef0422163e7bfc7368c5c0ccfd07c7b943572c",
        "to": "0x482d224436c9d3794a0f9abf6396c90a681462c2",
        "gas": "0x45961",
        "value": "0x0",
        "input": "0x576cf9d00000000000000000000000000000000000000000000000000000000000000060000000000000000000000000000000000000000000000000000000006b36ec800000000000000000000000005cef0422163e7bfc7368c5c0ccfd07c7b943572c000000000000000000000000000000000000000000000000000000000000003657696c6c20457468657265756d2045544620696e666c6f77732073757270617373202435304220627920656e64206f6620323032363f00000000000000000000",
        "nonce": "0x49",
        "chainId": "0x279f"
      },
      "additionalContracts": [],
      "isFixedGasLimit": false
    },
    {
      "hash": "0x5359a9a86758a18a0b39bde2873faa49efd9eb812140de3e1a52263f4c9e1758",
      "transactionType": "CALL",
      "contractName": null,
      "contractAddress": "0x482d224436c9d3794a0f9abf6396c90a681462c2",
      "function": "createMarket(string,uint256,address)",
      "arguments": [
        "Will the S&P 500 close above 6000 at any point in 2026?",
        "1798761600",
        "0x5cEf0422163E7bfc7368c5C0CcFd07c7B943572c"
      ],
      "transaction": {
        "from": "0x5cef0422163e7bfc7368c5c0ccfd07c7b943572c",
        "to": "0x482d224436c9d3794a0f9abf6396c90a681462c2",
        "gas": "0x41b96",
        "value": "0x0",
        "input": "0x576cf9d00000000000000000000000000000000000000000000000000000000000000060000000000000000000000000000000000000000000000000000000006b36ec800000000000000000000000005cef0422163e7bfc7368c5c0ccfd07c7b943572c000000000000000000000000000000000000000000000000000000000000003757696c6c20746865205326502035303020636c6f73652061626f7665203630303020617420616e7920706f696e7420696e20323032363f000000000000000000",
        "nonce": "0x4a",
        "chainId": "0x279f"
      },
      "additionalContracts": [],
      "isFixedGasLimit": false
    },
    {
      "hash": "0x6dbe9c15feb8a733671470bb399a7d544173343c55d7ab38152fcfadede6b7ea",
      "transactionType": "CALL",
      "contractName": null,
      "contractAddress": "0x482d224436c9d3794a0f9abf6396c90a681462c2",
      "function": "createMarket(string,uint256,address)",
      "arguments": [
        "Will SpaceX successfully land humans on Mars before 2030?",
        "1924905600",
        "0x5cEf0422163E7bfc7368c5C0CcFd07c7B943572c"
      ],
      "transaction": {
        "from": "0x5cef0422163e7bfc7368c5c0ccfd07c7b943572c",
        "to": "0x482d224436c9d3794a0f9abf6396c90a681462c2",
        "gas": "0x41bb7",
        "value": "0x0",
        "input": "0x576cf9d000000000000000000000000000000000000000000000000000000000000000600000000000000000000000000000000000000000000000000000000072bbba800000000000000000000000005cef0422163e7bfc7368c5c0ccfd07c7b943572c000000000000000000000000000000000000000000000000000000000000003957696c6c20537061636558207375636365737366756c6c79206c616e642068756d616e73206f6e204d617273206265666f726520323033303f00000000000000",
        "nonce": "0x4b",
        "chainId": "0x279f"
      },
      "additionalContracts": [],
      "isFixedGasLimit": false
    },
    {
      "hash": "0xca21a1470308ef4e1e6dc013e173dd85440241d14e5ed6718677dc406c1f70ae",
      "transactionType": "CALL",
      "contractName": null,
      "contractAddress": "0x482d224436c9d3794a0f9abf6396c90a681462c2",
      "function": "createMarket(string,uint256,address)",
      "arguments": [
        "Will an AI system win a Nobel Prize before 2035?",
        "2082758400",
        "0x5cEf0422163E7bfc7368c5C0CcFd07c7B943572c"
      ],
      "transaction": {
        "from": "0x5cef0422163e7bfc7368c5c0ccfd07c7b943572c",
        "to": "0x482d224436c9d3794a0f9abf6396c90a681462c2",
        "gas": "0x41b12",
        "value": "0x0",
        "input": "0x576cf9d00000000000000000000000000000000000000000000000000000000000000060000000000000000000000000000000000000000000000000000000007c245f000000000000000000000000005cef0422163e7bfc7368c5c0ccfd07c7b943572c000000000000000000000000000000000000000000000000000000000000003057696c6c20616e2041492073797374656d2077696e2061204e6f62656c205072697a65206265666f726520323033353f00000000000000000000000000000000",
        "nonce": "0x4c",
        "chainId": "0x279f"
      },
      "additionalContracts": [],
      "isFixedGasLimit": false
    },
    {
      "hash": "0xb9aea2b4315875ef16a3c90f9384824a4476916cb8dcb8ea1af073c659e11047",
      "transactionType": "CALL",
      "contractName": null,
      "contractAddress": "0x482d224436c9d3794a0f9abf6396c90a681462c2",
      "function": "createMarket(string,uint256,address)",
      "arguments": [
        "Will a BRICS nation launch a CBDC used by over 100M people by 2028?",
        "1861920000",
        "0x5cEf0422163E7bfc7368c5C0CcFd07c7B943572c"
      ],
      "transaction": {
        "from": "0x5cef0422163e7bfc7368c5c0ccfd07c7b943572c",
        "to": "0x482d224436c9d3794a0f9abf6396c90a681462c2",
        "gas": "0x49626",
        "value": "0x0",
        "input": "0x576cf9d00000000000000000000000000000000000000000000000000000000000000060000000000000000000000000000000000000000000000000000000006efaa5000000000000000000000000005cef0422163e7bfc7368c5c0ccfd07c7b943572c000000000000000000000000000000000000000000000000000000000000004357696c6c2061204252494353206e6174696f6e206c61756e6368206120434244432075736564206279206f766572203130304d2070656f706c6520627920323032383f0000000000000000000000000000000000000000000000000000000000",
        "nonce": "0x4d",
        "chainId": "0x279f"
      },
      "additionalContracts": [],
      "isFixedGasLimit": false
    },
    {
      "hash": "0xc130c64b1367abf953a89f61522ff3687bde23bb210b45540958bc3d03945179",
      "transactionType": "CALL",
      "contractName": null,
      "contractAddress": "0x482d224436c9d3794a0f9abf6396c90a681462c2",
      "function": "createMarket(string,uint256,address)",
      "arguments": [
        "Will the Lakers beat the Warriors in their March 1, 2026 NBA matchup?",
        "1774940375",
        "0x5cEf0422163E7bfc7368c5C0CcFd07c7B943572c"
      ],
      "transaction": {
        "from": "0x5cef0422163e7bfc7368c5c0ccfd07c7b943572c",
        "to": "0x482d224436c9d3794a0f9abf6396c90a681462c2",
        "gas": "0x49657",
        "value": "0x0",
        "input": "0x576cf9d000000000000000000000000000000000000000000000000000000000000000600000000000000000000000000000000000000000000000000000000069cb70d70000000000000000000000005cef0422163e7bfc7368c5c0ccfd07c7b943572c000000000000000000000000000000000000000000000000000000000000004557696c6c20746865204c616b6572732062656174207468652057617272696f727320696e207468656972204d6172636820312c2032303236204e4241206d6174636875703f000000000000000000000000000000000000000000000000000000",
        "nonce": "0x4e",
        "chainId": "0x279f"
      },
      "additionalContracts": [],
      "isFixedGasLimit": false
    },
    {
      "hash": "0x632f4e828c4776934e08f9ef6fc50f6d576f1c3673840d8b10b95e340b4beecc",
      "transactionType": "CALL",
      "contractName": null,
      "contractAddress": "0x482d224436c9d3794a0f9abf6396c90a681462c2",
      "function": "createMarket(string,uint256,address)",
      "arguments": [
        "Will the 76ers cover the spread vs Celtics on March 1, 2026?",
        "1774940375",
        "0x5cEf0422163E7bfc7368c5C0CcFd07c7B943572c"
      ],
      "transaction": {
        "from": "0x5cef0422163e7bfc7368c5c0ccfd07c7b943572c",
        "to": "0x482d224436c9d3794a0f9abf6396c90a681462c2",
        "gas": "0x459ca",
        "value": "0x0",
        "input": "0x576cf9d000000000000000000000000000000000000000000000000000000000000000600000000000000000000000000000000000000000000000000000000069cb70d70000000000000000000000005cef0422163e7bfc7368c5c0ccfd07c7b943572c000000000000000000000000000000000000000000000000000000000000003c57696c6c2074686520373665727320636f76657220746865207370726561642076732043656c74696373206f6e204d6172636820312c20323032363f00000000",
        "nonce": "0x4f",
        "chainId": "0x279f"
      },
      "additionalContracts": [],
      "isFixedGasLimit": false
    },
    {
      "hash": "0x318c8f8f575a6a586b01c369df7faf39609e137a1490375c4f023df73338ba8d",
      "transactionType": "CALL",
      "contractName": null,
      "contractAddress": "0x482d224436c9d3794a0f9abf6396c90a681462c2",
      "function": "createMarket(string,uint256,address)",
      "arguments": [
        "Will Michigan State beat Indiana in their March 1 Big Ten college basketball game?",
        "1774940375",
        "0x5cEf0422163E7bfc7368c5C0CcFd07c7B943572c"
      ],
      "transaction": {
        "from": "0x5cef0422163e7bfc7368c5c0ccfd07c7b943572c",
        "to": "0x482d224436c9d3794a0f9abf6396c90a681462c2",
        "gas": "0x4dc5d",
        "value": "0x0",
        "input": "0x576cf9d000000000000000000000000000000000000000000000000000000000000000600000000000000000000000000000000000000000000000000000000069cb70d70000000000000000000000005cef0422163e7bfc7368c5c0ccfd07c7b943572c000000000000000000000000000000000000000000000000000000000000005257696c6c204d6963686967616e205374617465206265617420496e6469616e6120696e207468656972204d617263682031204269672054656e20636f6c6c656765206261736b657462616c6c2067616d653f0000000000000000000000000000",
        "nonce": "0x50",
        "chainId": "0x279f"
      },
      "additionalContracts": [],
      "isFixedGasLimit": false
    },
    {
      "hash": "0xaddaeff3168b6a3d92345a7ec08f1256123fe19896438c94c3cd275862ddef17",
      "transactionType": "CALL",
      "contractName": null,
      "contractAddress": "0x482d224436c9d3794a0f9abf6396c90a681462c2",
      "function": "createMarket(string,uint256,address)",
      "arguments": [
        "Will Rangers beat Celtic in the Scottish Premiership on March 1, 2026?",
        "1774940375",
        "0x5cEf0422163E7bfc7368c5C0CcFd07c7B943572c"
      ],
      "transaction": {
        "from": "0x5cef0422163e7bfc7368c5c0ccfd07c7b943572c",
        "to": "0x482d224436c9d3794a0f9abf6396c90a681462c2",
        "gas": "0x49668",
        "value": "0x0",
        "input": "0x576cf9d000000000000000000000000000000000000000000000000000000000000000600000000000000000000000000000000000000000000000000000000069cb70d70000000000000000000000005cef0422163e7bfc7368c5c0ccfd07c7b943572c000000000000000000000000000000000000000000000000000000000000004657696c6c2052616e6765727320626561742043656c74696320696e207468652053636f7474697368205072656d69657273686970206f6e204d6172636820312c20323032363f0000000000000000000000000000000000000000000000000000",
        "nonce": "0x51",
        "chainId": "0x279f"
      },
      "additionalContracts": [],
      "isFixedGasLimit": false
    },
    {
      "hash": "0x09823c1d317c4be419405ae88b20a9bbc0d39ccfe66f86773591ca60f5e104b2",
      "transactionType": "CALL",
      "contractName": null,
      "contractAddress": "0x482d224436c9d3794a0f9abf6396c90a681462c2",
      "function": "createMarket(string,uint256,address)",
      "arguments": [
        "At the Cognizant Classic (PGA), will a top-20 world ranked golfer win the event?",
        "1774940375",
        "0x5cEf0422163E7bfc7368c5C0CcFd07c7B943572c"
      ],
      "transaction": {
        "from": "0x5cef0422163e7bfc7368c5c0ccfd07c7b943572c",
        "to": "0x482d224436c9d3794a0f9abf6396c90a681462c2",
        "gas": "0x4dc3a",
        "value": "0x0",
        "input": "0x576cf9d000000000000000000000000000000000000000000000000000000000000000600000000000000000000000000000000000000000000000000000000069cb70d70000000000000000000000005cef0422163e7bfc7368c5c0ccfd07c7b943572c000000000000000000000000000000000000000000000000000000000000005041742074686520436f676e697a616e7420436c61737369632028504741292c2077696c6c206120746f702d323020776f726c642072616e6b656420676f6c6665722077696e20746865206576656e743f00000000000000000000000000000000",
        "nonce": "0x52",
        "chainId": "0x279f"
      },
      "additionalContracts": [],
      "isFixedGasLimit": false
    }
  ],
  "receipts": [
    {
      "status": "0x1",
      "cumulativeGasUsed": "0xaa289",
      "logs": [
        {
          "address": "0x482d224436c9d3794a0f9abf6396c90a681462c2",
          "topics": [
            "0x6f32195b7d0d8b110adfb4d94d26620ec7319053a80302562d6dbbd62805ba9f",
            "0xe4aab3eb4ca349ebd647ad869f50bd01f1d841636c65e9c8249907ed0687c01e"
          ],
          "data": "0x0000000000000000000000000000000000000000000000000000000000000060000000000000000000000000000000000000000000000000000000006b36ec800000000000000000000000005cef0422163e7bfc7368c5c0ccfd07c7b943572c000000000000000000000000000000000000000000000000000000000000003257696c6c20426974636f696e2065786365656420243135302c30303020627920446563656d6265722033312c20323032363f0000000000000000000000000000",
          "blockHash": "0xe6aed0e001ec665823eaff1b2160954c9f8fab95ff21f81e9fc6862c988d3147",
          "blockNumber": "0xf2d9ec",
          "blockTimestamp": "0x69a3e3e2",
          "transactionHash": "0x1f919e753b8724d27803c7eb6d437d7b586db357247c014c4a9e69a86fb2ac56",
          "transactionIndex": "0x2",
          "logIndex": "0x3",
          "removed": false
        }
      ],
      "logsBloom": "0x00000000000000000000000000000000000000000000000000000000000000000000000000000000000000000000000008000000000000000000000000000000000000000000000000000000002000000000000000000000000000000000000000000000000000000000000000000040000000000000000000000000000000000000000000000000000000000000000000000000000000000000000000000000000003000000000000000000000020000000000000000000000000000000000000000000000000000008000000000000000000000000000000000000000000000000000000800000002000000000000000000000000000000000000000000000",
      "type": "0x2",
      "transactionHash": "0x1f919e753b8724d27803c7eb6d437d7b586db357247c014c4a9e69a86fb2ac56",
      "transactionIndex": "0x2",
      "blockHash": "0xe6aed0e001ec665823eaff1b2160954c9f8fab95ff21f81e9fc6862c988d3147",
      "blockNumber": "0xf2d9ec",
      "gasUsed": "0x4591a",
      "effectiveGasPrice": "0x17fb474601",
      "from": "0x5cef0422163e7bfc7368c5c0ccfd07c7b943572c",
      "to": "0x482d224436c9d3794a0f9abf6396c90a681462c2",
      "contractAddress": null
    },
    {
      "status": "0x1",
      "cumulativeGasUsed": "0xefbea",
      "logs": [
        {
          "address": "0x482d224436c9d3794a0f9abf6396c90a681462c2",
          "topics": [
            "0x6f32195b7d0d8b110adfb4d94d26620ec7319053a80302562d6dbbd62805ba9f",
            "0x8e0bb60bc9df8dffddb707ee284f4211730a60d0ad01e25521210eba5c4a5c14"
          ],
          "data": "0x0000000000000000000000000000000000000000000000000000000000000060000000000000000000000000000000000000000000000000000000006b36ec800000000000000000000000005cef0422163e7bfc7368c5c0ccfd07c7b943572c000000000000000000000000000000000000000000000000000000000000003657696c6c20457468657265756d2045544620696e666c6f77732073757270617373202435304220627920656e64206f6620323032363f00000000000000000000",
          "blockHash": "0xe6aed0e001ec665823eaff1b2160954c9f8fab95ff21f81e9fc6862c988d3147",
          "blockNumber": "0xf2d9ec",
          "blockTimestamp": "0x69a3e3e2",
          "transactionHash": "0xa02ebe8cac83e37c0b0498fb28c7dc8003e51ea2281c9424c5830e4e6c9fcddd",
          "transactionIndex": "0x3",
          "logIndex": "0x4",
          "removed": false
        }
      ],
      "logsBloom": "0x00000000000000000000000000000000000000000000000000000000000000000000000000000000000000000000000008000000000000000000000000000000000000000000000000000000002000000000000000000000000000000000000000000000000000000000000000000040000000000000000000000000000000000000000000000000000000000000000000000000000000000000000000000000000001000000000000000000000020000000000000000000000000000000000000000000000000000008000000000000000004040000000000000000000000020000000000000000000000000000000000000000000000000000000000000000",
      "type": "0x2",
      "transactionHash": "0xa02ebe8cac83e37c0b0498fb28c7dc8003e51ea2281c9424c5830e4e6c9fcddd",
      "transactionIndex": "0x3",
      "blockHash": "0xe6aed0e001ec665823eaff1b2160954c9f8fab95ff21f81e9fc6862c988d3147",
      "blockNumber": "0xf2d9ec",
      "gasUsed": "0x45961",
      "effectiveGasPrice": "0x17fb474601",
      "from": "0x5cef0422163e7bfc7368c5c0ccfd07c7b943572c",
      "to": "0x482d224436c9d3794a0f9abf6396c90a681462c2",
      "contractAddress": null
    },
    {
      "status": "0x1",
      "cumulativeGasUsed": "0x131780",
      "logs": [
        {
          "address": "0x482d224436c9d3794a0f9abf6396c90a681462c2",
          "topics": [
            "0x6f32195b7d0d8b110adfb4d94d26620ec7319053a80302562d6dbbd62805ba9f",
            "0x024d86b22b2d2435695bc289dc6421ef2797043b6620058439da44cda92cfcc3"
          ],
          "data": "0x0000000000000000000000000000000000000000000000000000000000000060000000000000000000000000000000000000000000000000000000006b36ec800000000000000000000000005cef0422163e7bfc7368c5c0ccfd07c7b943572c000000000000000000000000000000000000000000000000000000000000003757696c6c20746865205326502035303020636c6f73652061626f7665203630303020617420616e7920706f696e7420696e20323032363f000000000000000000",
          "blockHash": "0xe6aed0e001ec665823eaff1b2160954c9f8fab95ff21f81e9fc6862c988d3147",
          "blockNumber": "0xf2d9ec",
          "blockTimestamp": "0x69a3e3e2",
          "transactionHash": "0x5359a9a86758a18a0b39bde2873faa49efd9eb812140de3e1a52263f4c9e1758",
          "transactionIndex": "0x4",
          "logIndex": "0x5",
          "removed": false
        }
      ],
      "logsBloom": "0x00000000000000000000000000000000000000000000000000000000000000000000000000000000000000000000000008000000000000000000000000000000000000000000000000000000002000000000000000000000000000000000000000000000040000000000000000000040000000000000000000000000000000000000000008000000000000000000000000000000000000000000000000000000000001000000000000000000000020000000000000000000000000000000000000000000000000000008000000000000000000000000000000000000000000000000010000000000000000000000000000000000000000000000000000000000",
      "type": "0x2",
      "transactionHash": "0x5359a9a86758a18a0b39bde2873faa49efd9eb812140de3e1a52263f4c9e1758",
      "transactionIndex": "0x4",
      "blockHash": "0xe6aed0e001ec665823eaff1b2160954c9f8fab95ff21f81e9fc6862c988d3147",
      "blockNumber": "0xf2d9ec",
      "gasUsed": "0x41b96",
      "effectiveGasPrice": "0x17fb474601",
      "from": "0x5cef0422163e7bfc7368c5c0ccfd07c7b943572c",
      "to": "0x482d224436c9d3794a0f9abf6396c90a681462c2",
      "contractAddress": null
    },
    {
      "status": "0x1",
      "cumulativeGasUsed": "0x173337",
      "logs": [
        {
          "address": "0x482d224436c9d3794a0f9abf6396c90a681462c2",
          "topics": [
            "0x6f32195b7d0d8b110adfb4d94d26620ec7319053a80302562d6dbbd62805ba9f",
            "0xf56856c4679e3c9889d8b463c8c21bb7867ac259d482a02a593547da8200cb53"
          ],
          "data": "0x00000000000000000000000000000000000000000000000000000000000000600000000000000000000000000000000000000000000000000000000072bbba800000000000000000000000005cef0422163e7bfc7368c5c0ccfd07c7b943572c000000000000000000000000000000000000000000000000000000000000003957696c6c20537061636558207375636365737366756c6c79206c616e642068756d616e73206f6e204d617273206265666f726520323033303f00000000000000",
          "blockHash": "0xe6aed0e001ec665823eaff1b2160954c9f8fab95ff21f81e9fc6862c988d3147",
          "blockNumber": "0xf2d9ec",
          "blockTimestamp": "0x69a3e3e2",
          "transactionHash": "0x6dbe9c15feb8a733671470bb399a7d544173343c55d7ab38152fcfadede6b7ea",
          "transactionIndex": "0x5",
          "logIndex": "0x6",
          "removed": false
        }
      ],
      "logsBloom": "0x00000000000000000000000000000000000000000000000000000000000000000000000000000000000000000000000008000000000000000000000000000000000000000000000000000000002000000000000000000000000000000000000000000000000000000000000000000040000000000000000000000000000000000000000000000000000000000000000000000000000000000000000000000000000001000000000000000000000020000004000000000000000000000000000000040000000000000008000000000000000000000000000000000000000000000000000000000000000000000000000000000000000000000000000000040000",
      "type": "0x2",
      "transactionHash": "0x6dbe9c15feb8a733671470bb399a7d544173343c55d7ab38152fcfadede6b7ea",
      "transactionIndex": "0x5",
      "blockHash": "0xe6aed0e001ec665823eaff1b2160954c9f8fab95ff21f81e9fc6862c988d3147",
      "blockNumber": "0xf2d9ec",
      "gasUsed": "0x41bb7",
      "effectiveGasPrice": "0x17fb474601",
      "from": "0x5cef0422163e7bfc7368c5c0ccfd07c7b943572c",
      "to": "0x482d224436c9d3794a0f9abf6396c90a681462c2",
      "contractAddress": null
    },
    {
      "status": "0x1",
      "cumulativeGasUsed": "0x1b4e49",
      "logs": [
        {
          "address": "0x482d224436c9d3794a0f9abf6396c90a681462c2",
          "topics": [
            "0x6f32195b7d0d8b110adfb4d94d26620ec7319053a80302562d6dbbd62805ba9f",
            "0x80fc27271d3a34101086871a41c8913681e9897e028cc3fae641881c3335fa8d"
          ],
          "data": "0x0000000000000000000000000000000000000000000000000000000000000060000000000000000000000000000000000000000000000000000000007c245f000000000000000000000000005cef0422163e7bfc7368c5c0ccfd07c7b943572c000000000000000000000000000000000000000000000000000000000000003057696c6c20616e2041492073797374656d2077696e2061204e6f62656c205072697a65206265666f726520323033353f00000000000000000000000000000000",
          "blockHash": "0xe6aed0e001ec665823eaff1b2160954c9f8fab95ff21f81e9fc6862c988d3147",
          "blockNumber": "0xf2d9ec",
          "blockTimestamp": "0x69a3e3e2",
          "transactionHash": "0xca21a1470308ef4e1e6dc013e173dd85440241d14e5ed6718677dc406c1f70ae",
          "transactionIndex": "0x6",
          "logIndex": "0x7",
          "removed": false
        }
      ],
      "logsBloom": "0x00000000000000000000000000000000000000000000000000000000000000000000000000000000000000000000000008000000000000000000000000000000000000000000000000000000002000000000000000000000000000000000000000000000000000000000000000000040000000000000000000000000000000000000000000000000000000000000000000000000000000000000000000000000000001000000000000000000000022000000000200000000000000000000000000000000000000000008000000000000000000000000000000000000000000000000000080000000000000000000000000000000000000000000000000000000",
      "type": "0x2",
      "transactionHash": "0xca21a1470308ef4e1e6dc013e173dd85440241d14e5ed6718677dc406c1f70ae",
      "transactionIndex": "0x6",
      "blockHash": "0xe6aed0e001ec665823eaff1b2160954c9f8fab95ff21f81e9fc6862c988d3147",
      "blockNumber": "0xf2d9ec",
      "gasUsed": "0x41b12",
      "effectiveGasPrice": "0x17fb474601",
      "from": "0x5cef0422163e7bfc7368c5c0ccfd07c7b943572c",
      "to": "0x482d224436c9d3794a0f9abf6396c90a681462c2",
      "contractAddress": null
    },
    {
      "status": "0x1",
      "cumulativeGasUsed": "0x1fe46f",
      "logs": [
        {
          "address": "0x482d224436c9d3794a0f9abf6396c90a681462c2",
          "topics": [
            "0x6f32195b7d0d8b110adfb4d94d26620ec7319053a80302562d6dbbd62805ba9f",
            "0xf7acd820722146c9eeb70591c8c80b07c1f769793b76c444439062e34f8785d5"
          ],
          "data": "0x0000000000000000000000000000000000000000000000000000000000000060000000000000000000000000000000000000000000000000000000006efaa5000000000000000000000000005cef0422163e7bfc7368c5c0ccfd07c7b943572c000000000000000000000000000000000000000000000000000000000000004357696c6c2061204252494353206e6174696f6e206c61756e6368206120434244432075736564206279206f766572203130304d2070656f706c6520627920323032383f0000000000000000000000000000000000000000000000000000000000",
          "blockHash": "0xe6aed0e001ec665823eaff1b2160954c9f8fab95ff21f81e9fc6862c988d3147",
          "blockNumber": "0xf2d9ec",
          "blockTimestamp": "0x69a3e3e2",
          "transactionHash": "0xb9aea2b4315875ef16a3c90f9384824a4476916cb8dcb8ea1af073c659e11047",
          "transactionIndex": "0x7",
          "logIndex": "0x8",
          "removed": false
        }
      ],
      "logsBloom": "0x00000000000000000000000000000000000000000000020000000000000000000000000000000000000000000000000008000000000000000000000000000000000000000000000000000000002000000000000000000000000000000000000000000000000000000000000000000040000000000000000004000000000000000000000000000000000000000000000000000000000000000000000000000000000001000000000000002000000020000000000000000000000000000000000000000000000000000008000000000000000000000000000000000000000000000000000000000000000000000000000000000000000000000000000000000000",
      "type": "0x2",
      "transactionHash": "0xb9aea2b4315875ef16a3c90f9384824a4476916cb8dcb8ea1af073c659e11047",
      "transactionIndex": "0x7",
      "blockHash": "0xe6aed0e001ec665823eaff1b2160954c9f8fab95ff21f81e9fc6862c988d3147",
      "blockNumber": "0xf2d9ec",
      "gasUsed": "0x49626",
      "effectiveGasPrice": "0x17fb474601",
      "from": "0x5cef0422163e7bfc7368c5c0ccfd07c7b943572c",
      "to": "0x482d224436c9d3794a0f9abf6396c90a681462c2",
      "contractAddress": null
    },
    {
      "status": "0x1",
      "cumulativeGasUsed": "0x247ac6",
      "logs": [
        {
          "address": "0x482d224436c9d3794a0f9abf6396c90a681462c2",
          "topics": [
            "0x6f32195b7d0d8b110adfb4d94d26620ec7319053a80302562d6dbbd62805ba9f",
            "0x4d43fbe3ed564c3643aef0eedc9d738c90d76ea9cbbc0a87f4b479f8f2fe485e"
          ],
          "data": "0x00000000000000000000000000000000000000000000000000000000000000600000000000000000000000000000000000000000000000000000000069cb70d70000000000000000000000005cef0422163e7bfc7368c5c0ccfd07c7b943572c000000000000000000000000000000000000000000000000000000000000004557696c6c20746865204c616b6572732062656174207468652057617272696f727320696e207468656972204d6172636820312c2032303236204e4241206d6174636875703f000000000000000000000000000000000000000000000000000000",
          "blockHash": "0xe6aed0e001ec665823eaff1b2160954c9f8fab95ff21f81e9fc6862c988d3147",
          "blockNumber": "0xf2d9ec",
          "blockTimestamp": "0x69a3e3e2",
          "transactionHash": "0xc130c64b1367abf953a89f61522ff3687bde23bb210b45540958bc3d03945179",
          "transactionIndex": "0x8",
          "logIndex": "0x9",
          "removed": false
        }
      ],
      "logsBloom": "0x00000000000000000000000000000000000000000000000000000000000000000000000000000000000000000000000008000000000000000000000000000000000020000000000000400000002000000000000000000000000000000000000000000000000000000000000000000040000000000000000000000000000000000000000000000000000000000000000000000000000000000000000000004000000001000000000000000000000020000000000000000000000000000000000000000000000000000008000000000000000000000000000000000000000000000000000000000000000000000000000000000000000000000000000000000000",
      "type": "0x2",
      "transactionHash": "0xc130c64b1367abf953a89f61522ff3687bde23bb210b45540958bc3d03945179",
      "transactionIndex": "0x8",
      "blockHash": "0xe6aed0e001ec665823eaff1b2160954c9f8fab95ff21f81e9fc6862c988d3147",
      "blockNumber": "0xf2d9ec",
      "gasUsed": "0x49657",
      "effectiveGasPrice": "0x17fb474601",
      "from": "0x5cef0422163e7bfc7368c5c0ccfd07c7b943572c",
      "to": "0x482d224436c9d3794a0f9abf6396c90a681462c2",
      "contractAddress": null
    },
    {
      "status": "0x1",
      "cumulativeGasUsed": "0x28d490",
      "logs": [
        {
          "address": "0x482d224436c9d3794a0f9abf6396c90a681462c2",
          "topics": [
            "0x6f32195b7d0d8b110adfb4d94d26620ec7319053a80302562d6dbbd62805ba9f",
            "0x0ceca4753faf117181bd49667d1fecd8930bc9dfee24aabd34135082c57ff60b"
          ],
          "data": "0x00000000000000000000000000000000000000000000000000000000000000600000000000000000000000000000000000000000000000000000000069cb70d70000000000000000000000005cef0422163e7bfc7368c5c0ccfd07c7b943572c000000000000000000000000000000000000000000000000000000000000003c57696c6c2074686520373665727320636f76657220746865207370726561642076732043656c74696373206f6e204d6172636820312c20323032363f00000000",
          "blockHash": "0xe6aed0e001ec665823eaff1b2160954c9f8fab95ff21f81e9fc6862c988d3147",
          "blockNumber": "0xf2d9ec",
          "blockTimestamp": "0x69a3e3e2",
          "transactionHash": "0x632f4e828c4776934e08f9ef6fc50f6d576f1c3673840d8b10b95e340b4beecc",
          "transactionIndex": "0x9",
          "logIndex": "0xa",
          "removed": false
        }
      ],
      "logsBloom": "0x00000000000000000000000000000000000000000000000000000000000000000000000000000000000000000000000008000000000000000000000000000040000000000000000000000000002000000000000000000000000000000000000000000000000000000000000000000040000000000000000000000000000000000000000000000000000000000000000000000000000000000000000000000000000001000000000000000000000020000000000000000000000000000000000000000000000000000008000000000000000000000000000000000000000000000000000000000000000000010000000000000000080000000000000000000000",
      "type": "0x2",
      "transactionHash": "0x632f4e828c4776934e08f9ef6fc50f6d576f1c3673840d8b10b95e340b4beecc",
      "transactionIndex": "0x9",
      "blockHash": "0xe6aed0e001ec665823eaff1b2160954c9f8fab95ff21f81e9fc6862c988d3147",
      "blockNumber": "0xf2d9ec",
      "gasUsed": "0x459ca",
      "effectiveGasPrice": "0x17fb474601",
      "from": "0x5cef0422163e7bfc7368c5c0ccfd07c7b943572c",
      "to": "0x482d224436c9d3794a0f9abf6396c90a681462c2",
      "contractAddress": null
    },
    {
      "status": "0x1",
      "cumulativeGasUsed": "0x2db0ed",
      "logs": [
        {
          "address": "0x482d224436c9d3794a0f9abf6396c90a681462c2",
          "topics": [
            "0x6f32195b7d0d8b110adfb4d94d26620ec7319053a80302562d6dbbd62805ba9f",
            "0x52fabee3eb72ca5094f09a6e974b586d5e9003083e8e9f9fbe49fae5e5b35a82"
          ],
          "data": "0x00000000000000000000000000000000000000000000000000000000000000600000000000000000000000000000000000000000000000000000000069cb70d70000000000000000000000005cef0422163e7bfc7368c5c0ccfd07c7b943572c000000000000000000000000000000000000000000000000000000000000005257696c6c204d6963686967616e205374617465206265617420496e6469616e6120696e207468656972204d617263682031204269672054656e20636f6c6c656765206261736b657462616c6c2067616d653f0000000000000000000000000000",
          "blockHash": "0xe6aed0e001ec665823eaff1b2160954c9f8fab95ff21f81e9fc6862c988d3147",
          "blockNumber": "0xf2d9ec",
          "blockTimestamp": "0x69a3e3e2",
          "transactionHash": "0x318c8f8f575a6a586b01c369df7faf39609e137a1490375c4f023df73338ba8d",
          "transactionIndex": "0xa",
          "logIndex": "0xb",
          "removed": false
        }
      ],
      "logsBloom": "0x00000000000000000000000000000000000000000000000000000000000000000000000000000000000000000000000008000000000000000000000000000000000000000000000000000000002000000000000000000000000000000000000000000000000000000000000000000040000000000000000000000000000000000000000000000000000440000080000000000000000000000000000000000000000001000000000000000000000020000000000000000000000000000000000000000000000000000008000000000000000000000000000000000000000000000000000000000000000000000000000000000000000000000000000000000000",
      "type": "0x2",
      "transactionHash": "0x318c8f8f575a6a586b01c369df7faf39609e137a1490375c4f023df73338ba8d",
      "transactionIndex": "0xa",
      "blockHash": "0xe6aed0e001ec665823eaff1b2160954c9f8fab95ff21f81e9fc6862c988d3147",
      "blockNumber": "0xf2d9ec",
      "gasUsed": "0x4dc5d",
      "effectiveGasPrice": "0x17fb474601",
      "from": "0x5cef0422163e7bfc7368c5c0ccfd07c7b943572c",
      "to": "0x482d224436c9d3794a0f9abf6396c90a681462c2",
      "contractAddress": null
    },
    {
      "status": "0x1",
      "cumulativeGasUsed": "0x324755",
      "logs": [
        {
          "address": "0x482d224436c9d3794a0f9abf6396c90a681462c2",
          "topics": [
            "0x6f32195b7d0d8b110adfb4d94d26620ec7319053a80302562d6dbbd62805ba9f",
            "0xf5964c1c8c6f7a1db7e0e5cd6a784bc6316477b70348ddfd1c970e2f372acd89"
          ],
          "data": "0x00000000000000000000000000000000000000000000000000000000000000600000000000000000000000000000000000000000000000000000000069cb70d70000000000000000000000005cef0422163e7bfc7368c5c0ccfd07c7b943572c000000000000000000000000000000000000000000000000000000000000004657696c6c2052616e6765727320626561742043656c74696320696e207468652053636f7474697368205072656d69657273686970206f6e204d6172636820312c20323032363f0000000000000000000000000000000000000000000000000000",
          "blockHash": "0xe6aed0e001ec665823eaff1b2160954c9f8fab95ff21f81e9fc6862c988d3147",
          "blockNumber": "0xf2d9ec",
          "blockTimestamp": "0x69a3e3e2",
          "transactionHash": "0xaddaeff3168b6a3d92345a7ec08f1256123fe19896438c94c3cd275862ddef17",
          "transactionIndex": "0xb",
          "logIndex": "0xc",
          "removed": false
        }
      ],
      "logsBloom": "0x00000000000000000000000000000000000000000000000000000000000000000000000000000000000000000000000008000000000000000000000000000000000000000000000002000000002000000000000000000000000000000000000000000000000000000000000000000040000000000000000000000000000000000000000000000000000000000000000000000000000000000000000100000000000001000000000000000000000020000000000000000000000000000000000000000000000000000008000000000000000000000000000000000020000000000000000000000000000000000000000000000000000000000000000000000000",
      "type": "0x2",
      "transactionHash": "0xaddaeff3168b6a3d92345a7ec08f1256123fe19896438c94c3cd275862ddef17",
      "transactionIndex": "0xb",
      "blockHash": "0xe6aed0e001ec665823eaff1b2160954c9f8fab95ff21f81e9fc6862c988d3147",
      "blockNumber": "0xf2d9ec",
      "gasUsed": "0x49668",
      "effectiveGasPrice": "0x17fb474601",
      "from": "0x5cef0422163e7bfc7368c5c0ccfd07c7b943572c",
      "to": "0x482d224436c9d3794a0f9abf6396c90a681462c2",
      "contractAddress": null
    },
    {
      "status": "0x1",
      "cumulativeGasUsed": "0x37238f",
      "logs": [
        {
          "address": "0x482d224436c9d3794a0f9abf6396c90a681462c2",
          "topics": [
            "0x6f32195b7d0d8b110adfb4d94d26620ec7319053a80302562d6dbbd62805ba9f",
            "0xdd546ae2e8aad86393400bb419a0c4107a7ebc36038bccda5555ce4884079905"
          ],
          "data": "0x00000000000000000000000000000000000000000000000000000000000000600000000000000000000000000000000000000000000000000000000069cb70d70000000000000000000000005cef0422163e7bfc7368c5c0ccfd07c7b943572c000000000000000000000000000000000000000000000000000000000000005041742074686520436f676e697a616e7420436c61737369632028504741292c2077696c6c206120746f702d323020776f726c642072616e6b656420676f6c6665722077696e20746865206576656e743f00000000000000000000000000000000",
          "blockHash": "0xe6aed0e001ec665823eaff1b2160954c9f8fab95ff21f81e9fc6862c988d3147",
          "blockNumber": "0xf2d9ec",
          "blockTimestamp": "0x69a3e3e2",
          "transactionHash": "0x09823c1d317c4be419405ae88b20a9bbc0d39ccfe66f86773591ca60f5e104b2",
          "transactionIndex": "0xc",
          "logIndex": "0xd",
          "removed": false
        }
      ],
      "logsBloom": "0x00000000000000000000000000000000000000000000000000000000000000000000000000000000000000000000000008000000000000000000000000000000000000000000000000000000002000000000000000000000000000000000000000000000000000000000000000000040000000000000000000000000000000000000000000000000000000000000000000000000000000000000000000000000000001000000000000000000200020000000000000000000000000000000000100000000000000000008000000000000000000000000000000000000000000000000000000000010000000000000000000000000000000000000000000000000",
      "type": "0x2",
      "transactionHash": "0x09823c1d317c4be419405ae88b20a9bbc0d39ccfe66f86773591ca60f5e104b2",
      "transactionIndex": "0xc",
      "blockHash": "0xe6aed0e001ec665823eaff1b2160954c9f8fab95ff21f81e9fc6862c988d3147",
      "blockNumber": "0xf2d9ec",
      "gasUsed": "0x4dc3a",
      "effectiveGasPrice": "0x17fb474601",
      "from": "0x5cef0422163e7bfc7368c5c0ccfd07c7b943572c",
      "to": "0x482d224436c9d3794a0f9abf6396c90a681462c2",
      "contractAddress": null
    }
  ],
  "libraries": [],
  "pending": [],
  "returns": {},
  "timestamp": 1772348388260,
  "chain": 10143,
  "commit": null
}